{
  "_format": "hh3-artifact-1",
  "contractName": "PassportBoundNFT",
  "sourceName": "contracts/PassportBoundNFT.sol",
  "abi": [
    {
      "inputs": [
        {
          "internalType": "address",
          "name": "identityVerificationHubV2Address",
          "type": "address"
        },
        {
          "internalType": "string",
          "name": "scopeSeed",
          "type": "string"
        },
        {
          "components": [
            {
              "internalType": "uint256",
              "name": "olderThan",
              "type": "uint256"
            },
            {
              "internalType": "string[]",
              "name": "forbiddenCountries",
              "type": "string[]"
            },
            {
              "internalType": "bool",
              "name": "ofacEnabled",
              "type": "bool"
            }
          ],
          "internalType": "struct SelfUtils.UnformattedVerificationConfigV2",
          "name": "_verificationConfig",
          "type": "tuple"
        }
      ],
      "stateMutability": "nonpayable",
      "type": "constructor"
    },
    {
      "inputs": [],
      "name": "ERC721EnumerableForbiddenBatchMint",
      "type": "error"
    },
    {
      "inputs": [
        {
          "internalType": "address",
          "name": "sender",
          "type": "address"
        },
        {
          "internalType": "uint256",
          "name": "tokenId",
          "type": "uint256"
        },
        {
          "internalType": "address",
          "name": "owner",
          "type": "address"
        }
      ],
      "name": "ERC721IncorrectOwner",
      "type": "error"
    },
    {
      "inputs": [
        {
          "internalType": "address",
          "name": "operator",
          "type": "address"
        },
        {
          "internalType": "uint256",
          "name": "tokenId",
          "type": "uint256"
        }
      ],
      "name": "ERC721InsufficientApproval",
      "type": "error"
    },
    {
      "inputs": [
        {
          "internalType": "address",
          "name": "approver",
          "type": "address"
        }
      ],
      "name": "ERC721InvalidApprover",
      "type": "error"
    },
    {
      "inputs": [
        {
          "internalType": "address",
          "name": "operator",
          "type": "address"
        }
      ],
      "name": "ERC721InvalidOperator",
      "type": "error"
    },
    {
      "inputs": [
        {
          "internalType": "address",
          "name": "owner",
          "type": "address"
        }
      ],
      "name": "ERC721InvalidOwner",
      "type": "error"
    },
    {
      "inputs": [
        {
          "internalType": "address",
          "name": "receiver",
          "type": "address"
        }
      ],
      "name": "ERC721InvalidReceiver",
      "type": "error"
    },
    {
      "inputs": [
        {
          "internalType": "address",
          "name": "sender",
          "type": "address"
        }
      ],
      "name": "ERC721InvalidSender",
      "type": "error"
    },
    {
      "inputs": [
        {
          "internalType": "uint256",
          "name": "tokenId",
          "type": "uint256"
        }
      ],
      "name": "ERC721NonexistentToken",
      "type": "error"
    },
    {
      "inputs": [
        {
          "internalType": "address",
          "name": "owner",
          "type": "address"
        },
        {
          "internalType": "uint256",
          "name": "index",
          "type": "uint256"
        }
      ],
      "name": "ERC721OutOfBoundsIndex",
      "type": "error"
    },
    {
      "inputs": [],
      "name": "InvalidDataFormat",
      "type": "error"
    },
    {
      "inputs": [],
      "name": "InvalidUserIdentifier",
      "type": "error"
    },
    {
      "inputs": [],
      "name": "PassportAlreadyMinted",
      "type": "error"
    },
    {
      "inputs": [],
      "name": "UnauthorizedCaller",
      "type": "error"
    },
    {
      "anonymous": false,
      "inputs": [
        {
          "indexed": true,
          "internalType": "address",
          "name": "owner",
          "type": "address"
        },
        {
          "indexed": true,
          "internalType": "address",
          "name": "approved",
          "type": "address"
        },
        {
          "indexed": true,
          "internalType": "uint256",
          "name": "tokenId",
          "type": "uint256"
        }
      ],
      "name": "Approval",
      "type": "event"
    },
    {
      "anonymous": false,
      "inputs": [
        {
          "indexed": true,
          "internalType": "address",
          "name": "owner",
          "type": "address"
        },
        {
          "indexed": true,
          "internalType": "address",
          "name": "operator",
          "type": "address"
        },
        {
          "indexed": false,
          "internalType": "bool",
          "name": "approved",
          "type": "bool"
        }
      ],
      "name": "ApprovalForAll",
      "type": "event"
    },
    {
      "anonymous": false,
      "inputs": [
        {
          "indexed": true,
          "internalType": "uint256",
          "name": "tokenId",
          "type": "uint256"
        },
        {
          "indexed": true,
          "internalType": "uint256",
          "name": "nullifier",
          "type": "uint256"
        }
      ],
      "name": "PassportMinted",
      "type": "event"
    },
    {
      "anonymous": false,
      "inputs": [
        {
          "indexed": true,
          "internalType": "address",
          "name": "from",
          "type": "address"
        },
        {
          "indexed": true,
          "internalType": "address",
          "name": "to",
          "type": "address"
        },
        {
          "indexed": true,
          "internalType": "uint256",
          "name": "tokenId",
          "type": "uint256"
        }
      ],
      "name": "Transfer",
      "type": "event"
    },
    {
      "inputs": [
        {
          "internalType": "address",
          "name": "to",
          "type": "address"
        },
        {
          "internalType": "uint256",
          "name": "tokenId",
          "type": "uint256"
        }
      ],
      "name": "approve",
      "outputs": [],
      "stateMutability": "nonpayable",
      "type": "function"
    },
    {
      "inputs": [
        {
          "internalType": "address",
          "name": "owner",
          "type": "address"
        }
      ],
      "name": "balanceOf",
      "outputs": [
        {
          "internalType": "uint256",
          "name": "",
          "type": "uint256"
        }
      ],
      "stateMutability": "view",
      "type": "function"
    },
    {
      "inputs": [
        {
          "internalType": "uint256",
          "name": "tokenId",
          "type": "uint256"
        }
      ],
      "name": "getApproved",
      "outputs": [
        {
          "internalType": "address",
          "name": "",
          "type": "address"
        }
      ],
      "stateMutability": "view",
      "type": "function"
    },
    {
      "inputs": [
        {
          "internalType": "bytes32",
          "name": "",
          "type": "bytes32"
        },
        {
          "internalType": "bytes32",
          "name": "",
          "type": "bytes32"
        },
        {
          "internalType": "bytes",
          "name": "",
          "type": "bytes"
        }
      ],
      "name": "getConfigId",
      "outputs": [
        {
          "internalType": "bytes32",
          "name": "",
          "type": "bytes32"
        }
      ],
      "stateMutability": "view",
      "type": "function"
    },
    {
      "inputs": [
        {
          "internalType": "address",
          "name": "owner",
          "type": "address"
        },
        {
          "internalType": "address",
          "name": "operator",
          "type": "address"
        }
      ],
      "name": "isApprovedForAll",
      "outputs": [
        {
          "internalType": "bool",
          "name": "",
          "type": "bool"
        }
      ],
      "stateMutability": "view",
      "type": "function"
    },
    {
      "inputs": [],
      "name": "name",
      "outputs": [
        {
          "internalType": "string",
          "name": "",
          "type": "string"
        }
      ],
      "stateMutability": "view",
      "type": "function"
    },
    {
      "inputs": [
        {
          "internalType": "bytes",
          "name": "output",
          "type": "bytes"
        },
        {
          "internalType": "bytes",
          "name": "userData",
          "type": "bytes"
        }
      ],
      "name": "onVerificationSuccess",
      "outputs": [],
      "stateMutability": "nonpayable",
      "type": "function"
    },
    {
      "inputs": [
        {
          "internalType": "uint256",
          "name": "tokenId",
          "type": "uint256"
        }
      ],
      "name": "ownerOf",
      "outputs": [
        {
          "internalType": "address",
          "name": "",
          "type": "address"
        }
      ],
      "stateMutability": "view",
      "type": "function"
    },
    {
      "inputs": [
        {
          "internalType": "uint256",
          "name": "nullifier",
          "type": "uint256"
        }
      ],
      "name": "passportData",
      "outputs": [
        {
          "internalType": "uint256",
          "name": "userId",
          "type": "uint256"
        },
        {
          "internalType": "uint256",
          "name": "olderThan",
          "type": "uint256"
        },
        {
          "internalType": "string",
          "name": "issuingState",
          "type": "string"
        },
        {
          "internalType": "string",
          "name": "expiryDate",
          "type": "string"
        }
      ],
      "stateMutability": "view",
      "type": "function"
    },
    {
      "inputs": [
        {
          "internalType": "address",
          "name": "from",
          "type": "address"
        },
        {
          "internalType": "address",
          "name": "to",
          "type": "address"
        },
        {
          "internalType": "uint256",
          "name": "tokenId",
          "type": "uint256"
        }
      ],
      "name": "safeTransferFrom",
      "outputs": [],
      "stateMutability": "nonpayable",
      "type": "function"
    },
    {
      "inputs": [
        {
          "internalType": "address",
          "name": "from",
          "type": "address"
        },
        {
          "internalType": "address",
          "name": "to",
          "type": "address"
        },
        {
          "internalType": "uint256",
          "name": "tokenId",
          "type": "uint256"
        },
        {
          "internalType": "bytes",
          "name": "data",
          "type": "bytes"
        }
      ],
      "name": "safeTransferFrom",
      "outputs": [],
      "stateMutability": "nonpayable",
      "type": "function"
    },
    {
      "inputs": [],
      "name": "scope",
      "outputs": [
        {
          "internalType": "uint256",
          "name": "",
          "type": "uint256"
        }
      ],
      "stateMutability": "view",
      "type": "function"
    },
    {
      "inputs": [
        {
          "internalType": "address",
          "name": "operator",
          "type": "address"
        },
        {
          "internalType": "bool",
          "name": "approved",
          "type": "bool"
        }
      ],
      "name": "setApprovalForAll",
      "outputs": [],
      "stateMutability": "nonpayable",
      "type": "function"
    },
    {
      "inputs": [
        {
          "internalType": "bytes4",
          "name": "interfaceId",
          "type": "bytes4"
        }
      ],
      "name": "supportsInterface",
      "outputs": [
        {
          "internalType": "bool",
          "name": "",
          "type": "bool"
        }
      ],
      "stateMutability": "view",
      "type": "function"
    },
    {
      "inputs": [],
      "name": "symbol",
      "outputs": [
        {
          "internalType": "string",
          "name": "",
          "type": "string"
        }
      ],
      "stateMutability": "view",
      "type": "function"
    },
    {
      "inputs": [
        {
          "internalType": "uint256",
          "name": "index",
          "type": "uint256"
        }
      ],
      "name": "tokenByIndex",
      "outputs": [
        {
          "internalType": "uint256",
          "name": "",
          "type": "uint256"
        }
      ],
      "stateMutability": "view",
      "type": "function"
    },
    {
      "inputs": [
        {
          "internalType": "uint256",
          "name": "tokenId",
          "type": "uint256"
        }
      ],
      "name": "tokenIdToNullifier",
      "outputs": [
        {
          "internalType": "uint256",
          "name": "nullifier",
          "type": "uint256"
        }
      ],
      "stateMutability": "view",
      "type": "function"
    },
    {
      "inputs": [
        {
          "internalType": "address",
          "name": "owner",
          "type": "address"
        },
        {
          "internalType": "uint256",
          "name": "index",
          "type": "uint256"
        }
      ],
      "name": "tokenOfOwnerByIndex",
      "outputs": [
        {
          "internalType": "uint256",
          "name": "",
          "type": "uint256"
        }
      ],
      "stateMutability": "view",
      "type": "function"
    },
    {
      "inputs": [
        {
          "internalType": "uint256",
          "name": "tokenId",
          "type": "uint256"
        }
      ],
      "name": "tokenURI",
      "outputs": [
        {
          "internalType": "string",
          "name": "",
          "type": "string"
        }
      ],
      "stateMutability": "view",
      "type": "function"
    },
    {
      "inputs": [],
      "name": "totalSupply",
      "outputs": [
        {
          "internalType": "uint256",
          "name": "",
          "type": "uint256"
        }
      ],
      "stateMutability": "view",
      "type": "function"
    },
    {
      "inputs": [
        {
          "internalType": "address",
          "name": "from",
          "type": "address"
        },
        {
          "internalType": "address",
          "name": "to",
          "type": "address"
        },
        {
          "internalType": "uint256",
          "name": "tokenId",
          "type": "uint256"
        }
      ],
      "name": "transferFrom",
      "outputs": [],
      "stateMutability": "nonpayable",
      "type": "function"
    },
    {
      "inputs": [],
      "name": "verificationConfigId",
      "outputs": [
        {
          "internalType": "bytes32",
          "name": "",
          "type": "bytes32"
        }
      ],
      "stateMutability": "view",
      "type": "function"
    },
    {
      "inputs": [
        {
          "internalType": "bytes",
          "name": "proofPayload",
          "type": "bytes"
        },
        {
          "internalType": "bytes",
          "name": "userContextData",
          "type": "bytes"
        }
      ],
      "name": "verifySelfProof",
      "outputs": [],
      "stateMutability": "nonpayable",
      "type": "function"
    }
  ],
  "bytecode": "0x60c060405234801561000f575f5ffd5b50604051612e2b380380612e2b83398101604081905261002e91610a4d565b604080518082018252601081526f14185cdcdc1bdc9d109bdd5b9913919560821b60208083019190915282518084019093526005835264141093919560da1b908301526001600160a01b038516608052908484610093308261008e610140565b610193565b5f5550600190506100a48382610c32565b5060026100b18282610c32565b5050505f6100c48261024a60201b60201c565b6040516309ddb09160e01b81529091506001600160a01b038516906309ddb091906100f3908490600401610d16565b6020604051808303815f875af115801561010f573d5f5f3e3d5ffd5b505050506040513d601f19601f820116820180604052508101906101339190610d80565b60a05250610e9692505050565b5f4661a4ec8190036101675773f134707a4c4a3a76b8410fc0294d620a7c34158191505090565b8062aa044c0361018c57730a782f7f9f8aac6e0bacaf3cd4aa292c3275c6f291505090565b5f91505090565b5f6001600160a01b0382166101a957505f610243565b5f6101b485846102bc565b90505f6101c08561037b565b604080518082018252848152602081018390529051632b0aac7f60e11b81529192506001600160a01b0386169163561558fe916101ff91600401610d97565b602060405180830381865afa15801561021a573d5f5f3e3d5ffd5b505050506040513d601f19601f8201168201806040525081019061023e9190610d80565b925050505b9392505050565b6102526108eb565b61025a610926565b6040838101805115158352805115156020808501919091529051151583830152815160a081018352855115158152855181830152908501805151151592820192909252905160608201906102ad90610491565b81526020019190915292915050565b5f806102c784610651565b90505f6102de6102d98383601f61082b565b61037b565b90505f6102f16102d984601f602a61082b565b604080518082018252848152602081018390529051632b0aac7f60e11b81529192506001600160a01b0387169163561558fe9161033091600401610d97565b602060405180830381865afa15801561034b573d5f5f3e3d5ffd5b505050506040513d601f19601f8201168201806040525081019061036f9190610d80565b93505050505b92915050565b5f5f829050601f815111156103e55760405162461bcd60e51b815260206004820152602560248201527f537472696e6720746f6f206c6f6e6720666f7220426967496e7420636f6e76656044820152643939b4b7b760d91b60648201526084015b60405180910390fd5b5f805b825181101561048957607f83828151811061040557610405610dc7565b016020015160f81c111561045b5760405162461bcd60e51b815260206004820152601c60248201527f4e6f6e2d4153434949206368617261637465722064657465637465640000000060448201526064016103dc565b82818151811061046d5761046d610dc7565b60209101015160f81c60089290921b91909117906001016103e8565b509392505050565b610499610944565b601f600460605f5b855181101561056c575f8682815181106104bd576104bd610dc7565b60200260200101519050805160031461053e5760405162461bcd60e51b815260206004820152603760248201527f496e76616c696420636f756e74727920636f64653a206d75737420626520657860448201527f6163746c7920332063686172616374657273206c6f6e6700000000000000000060648201526084016103dc565b8281604051602001610551929190610df2565b60408051601f198184030181529190529250506001016104a1565b508051835f81600161057e8286610e22565b6105889190610e35565b6105929190610e48565b90505f5b81811080156105a457508581105b15610645575f805b84811015610619575f816105c08588610e67565b6105ca9190610e22565b905086811015610610575f8882815181106105e7576105e7610dc7565b016020015160f81c90505f6105fd846008610e67565b905061060b82821b86610e22565b945050505b506001016105ac565b508089836004811061062d5761062d610dc7565b6020020152508061063d81610e7e565b915050610596565b50505050505050919050565b604080518082018252601081526f181899199a1a9b1b9c1cb0b131b232b360811b60208201528151602a80825260608281019094526001600160a01b03851692915f91602082018180368337019050509050600360fc1b815f815181106106ba576106ba610dc7565b60200101906001600160f81b03191690815f1a905350600f60fb1b816001815181106106e8576106e8610dc7565b60200101906001600160f81b03191690815f1a9053505f5b6014811015610822578260048561071884600c610e22565b6020811061072857610728610dc7565b1a60f81b6001600160f81b031916901c60f81c60ff168151811061074e5761074e610dc7565b01602001516001600160f81b03191682610769836002610e67565b610774906002610e22565b8151811061078457610784610dc7565b60200101906001600160f81b03191690815f1a90535082846107a783600c610e22565b602081106107b7576107b7610dc7565b825191901a600f169081106107ce576107ce610dc7565b01602001516001600160f81b031916826107e9836002610e67565b6107f4906003610e22565b8151811061080457610804610dc7565b60200101906001600160f81b03191690815f1a905350600101610700565b50949350505050565b6060835f6108398585610e35565b6001600160401b0381111561085057610850610962565b6040519080825280601f01601f19166020018201604052801561087a576020820181803683370190505b509050845b848110156108e15782818151811061089957610899610dc7565b01602001516001600160f81b031916826108b38884610e35565b815181106108c3576108c3610dc7565b60200101906001600160f81b03191690815f1a90535060010161087f565b5095945050505050565b6040518060a001604052805f151581526020015f81526020015f15158152602001610914610944565b8152602001610921610926565b905290565b60405180606001604052806003906020820280368337509192915050565b60405180608001604052806004906020820280368337509192915050565b634e487b7160e01b5f52604160045260245ffd5b604051606081016001600160401b038111828210171561099857610998610962565b60405290565b604051601f8201601f191681016001600160401b03811182821017156109c6576109c6610962565b604052919050565b5f82601f8301126109dd575f5ffd5b81516001600160401b038111156109f6576109f6610962565b610a09601f8201601f191660200161099e565b818152846020838601011115610a1d575f5ffd5b8160208501602083015e5f918101602001919091529392505050565b80518015158114610a48575f5ffd5b919050565b5f5f5f60608486031215610a5f575f5ffd5b83516001600160a01b0381168114610a75575f5ffd5b60208501519093506001600160401b03811115610a90575f5ffd5b610a9c868287016109ce565b604086015190935090506001600160401b03811115610ab9575f5ffd5b840160608187031215610aca575f5ffd5b610ad2610976565b8151815260208201516001600160401b03811115610aee575f5ffd5b8201601f81018813610afe575f5ffd5b80516001600160401b03811115610b1757610b17610962565b8060051b610b276020820161099e565b9182526020818401810192908101908b841115610b42575f5ffd5b6020850192505b83831015610b875782516001600160401b03811115610b66575f5ffd5b610b758d6020838901016109ce565b83525060209283019290910190610b49565b602086015250610b9d9250505060408301610a39565b604082015280925050509250925092565b600181811c90821680610bc257607f821691505b602082108103610be057634e487b7160e01b5f52602260045260245ffd5b50919050565b601f821115610c2d57805f5260205f20601f840160051c81016020851015610c0b5750805b601f840160051c820191505b81811015610c2a575f8155600101610c17565b50505b505050565b81516001600160401b03811115610c4b57610c4b610962565b610c5f81610c598454610bae565b84610be6565b6020601f821160018114610c91575f8315610c7a5750848201515b5f19600385901b1c1916600184901b178455610c2a565b5f84815260208120601f198516915b82811015610cc05787850151825560209485019460019092019101610ca0565b5084821015610cdd57868401515f19600387901b60f8161c191681555b50505050600190811b01905550565b805f5b6003811015610d105781511515845260209384019390910190600101610cef565b50505050565b5f61014082019050825115158252602083015160208301526040830151151560408301526060830151606083015f5b6004811015610d64578251825260209283019290910190600101610d45565b5050506080830151610d7960e0840182610cec565b5092915050565b5f60208284031215610d90575f5ffd5b5051919050565b6040810181835f5b6002811015610dbe578151835260209283019290910190600101610d9f565b50505092915050565b634e487b7160e01b5f52603260045260245ffd5b5f81518060208401855e5f93019283525090919050565b5f610e06610e008386610ddb565b84610ddb565b949350505050565b634e487b7160e01b5f52601160045260245ffd5b8082018082111561037557610375610e0e565b8181038181111561037557610375610e0e565b5f82610e6257634e487b7160e01b5f52601260045260245ffd5b500490565b808202811582820484141761037557610375610e0e565b5f60018201610e8f57610e8f610e0e565b5060010190565b60805160a051611f5f610ecc5f395f81816102d401528181610312015261090d01525f818161061c015261096a0152611f5f5ff3fe608060405234801561000f575f5ffd5b5060043610610148575f3560e01c80636e62d0a8116100bf578063ada1b31911610079578063ada1b319146102c4578063b88d4fde146102fa578063bb4437441461030d578063c87b56dd14610334578063d161802b14610347578063e985e9c51461035a575f5ffd5b80636e62d0a81461025957806370a08231146102605780638d2d8d6a1461027357806395d89b4114610286578063a22cb4651461028e578063a6670ebe146102a1575f5ffd5b806323b872dd1161011057806323b872dd146101db5780632f745c59146101ee57806342842e0e146102015780634f6ccce71461021457806359c7237e146102275780636352211e14610246575f5ffd5b806301ffc9a71461014c57806306fdde0314610174578063081812fc14610189578063095ea7b3146101b457806318160ddd146101c9575b5f5ffd5b61015f61015a3660046114b0565b61036d565b60405190151581526020015b60405180910390f35b61017c610397565b60405161016b91906114f9565b61019c61019736600461150b565b610427565b6040516001600160a01b03909116815260200161016b565b6101c76101c236600461153d565b61044e565b005b6009545b60405190815260200161016b565b6101c76101e9366004611565565b61045d565b6101cd6101fc36600461153d565b6104eb565b6101c761020f366004611565565b61054e565b6101cd61022236600461150b565b61056d565b6101cd61023536600461150b565b600c6020525f908152604090205481565b61019c61025436600461150b565b6105c2565b5f546101cd565b6101cd61026e36600461159f565b6105cc565b6101c761028136600461169d565b610611565b61017c61067b565b6101c761029c36600461170d565b61068a565b6102b46102af36600461150b565b610695565b60405161016b9493929190611742565b6101cd6102d236600461177d565b7f00000000000000000000000000000000000000000000000000000000000000009392505050565b6101c76103083660046117c8565b6107c9565b6101cd7f000000000000000000000000000000000000000000000000000000000000000081565b61017c61034236600461150b565b6107e1565b6101c761035536600461186f565b610852565b61015f6103683660046118d9565b610a12565b5f6001600160e01b0319821663780e9d6360e01b1480610391575061039182610a3f565b92915050565b6060600180546103a69061190a565b80601f01602080910402602001604051908101604052809291908181526020018280546103d29061190a565b801561041d5780601f106103f45761010080835404028352916020019161041d565b820191905f5260205f20905b81548152906001019060200180831161040057829003601f168201915b5050505050905090565b5f61043182610a8e565b505f828152600560205260409020546001600160a01b0316610391565b610459828233610ac6565b5050565b6001600160a01b03821661048b57604051633250574960e11b81525f60048201526024015b60405180910390fd5b5f610497838333610ad3565b9050836001600160a01b0316816001600160a01b0316146104e5576040516364283d7b60e01b81526001600160a01b0380861660048301526024820184905282166044820152606401610482565b50505050565b5f6104f5836105cc565b82106105265760405163295f44f760e21b81526001600160a01b038416600482015260248101839052604401610482565b506001600160a01b03919091165f908152600760209081526040808320938352929052205490565b61056883838360405180602001604052805f8152506107c9565b505050565b5f61057760095490565b821061059f5760405163295f44f760e21b81525f600482015260248101839052604401610482565b600982815481106105b2576105b2611942565b905f5260205f2001549050919050565b5f61039182610a8e565b5f6001600160a01b0382166105f6576040516322718ad960e21b81525f6004820152602401610482565b506001600160a01b03165f9081526004602052604090205490565b336001600160a01b037f0000000000000000000000000000000000000000000000000000000000000000161461065a57604051635c427cd960e01b815260040160405180910390fd5b5f8280602001905181019061066f9190611ae1565b90506105688183610ba6565b6060600280546103a69061190a565b610459338383610cde565b600b6020525f9081526040902080546001820154600283018054929391926106bc9061190a565b80601f01602080910402602001604051908101604052809291908181526020018280546106e89061190a565b80156107335780601f1061070a57610100808354040283529160200191610733565b820191905f5260205f20905b81548152906001019060200180831161071657829003601f168201915b5050505050908060030180546107489061190a565b80601f01602080910402602001604051908101604052809291908181526020018280546107749061190a565b80156107bf5780601f10610796576101008083540402835291602001916107bf565b820191905f5260205f20905b8154815290600101906020018083116107a257829003601f168201915b5050505050905084565b6107d484848461045d565b6104e53385858585610d7c565b60606107ec82610a8e565b505f61080260408051602081019091525f815290565b90505f8151116108205760405180602001604052805f81525061084b565b8061082a84610ea4565b60405160200161083b929190611cb8565b6040516020818303038152906040525b9392505050565b60208310156108745760405163a512e2ff60e01b815260040160405180910390fd5b60408110156108965760405163a512e2ff60e01b815260040160405180910390fd5b83355f6108a66020828587611ccc565b6108af91611cf3565b90505f6108c0604060208688611ccc565b6108c991611cf3565b90505f6108d98560408189611ccc565b8080601f0160208091040260200160405190810160405280939291908181526020018383808284375f9201829052509394507f00000000000000000000000000000000000000000000000000000000000000009250610936915050565b90505f60025f60081b5f548c8c604051602001610957959493929190611d10565b60405160208183030381529060405290507f00000000000000000000000000000000000000000000000000000000000000006001600160a01b031663f7e83aee82848b8b6040516020016109ad93929190611d4a565b6040516020818303038152906040526040518363ffffffff1660e01b81526004016109d9929190611d63565b5f604051808303815f87803b1580156109f0575f5ffd5b505af1158015610a02573d5f5f3e3d5ffd5b5050505050505050505050505050565b6001600160a01b039182165f90815260066020908152604080832093909416825291909152205460ff1690565b5f6001600160e01b031982166380ac58cd60e01b1480610a6f57506001600160e01b03198216635b5e139f60e01b145b8061039157506301ffc9a760e01b6001600160e01b0319831614610391565b5f818152600360205260408120546001600160a01b03168061039157604051637e27328960e01b815260048101849052602401610482565b6105688383836001610f33565b5f5f610ae0858585611037565b90506001600160a01b038116610b3c57610b3784600980545f838152600a60205260408120829055600182018355919091527f6e1540171b6c0c960b71a7020d9f60077f6af931a8bbf590da0223dacf75c7af0155565b610b5f565b846001600160a01b0316816001600160a01b031614610b5f57610b5f8185611129565b6001600160a01b038516610b7b57610b76846111a6565b610b9e565b846001600160a01b0316816001600160a01b031614610b9e57610b9e858561124d565b949350505050565b81602001515f03610bca5760405163f0c426db60e01b815260040160405180910390fd5b6040808301515f908152600b602052205415610bf9576040516370f9e29b60e11b815260040160405180910390fd5b60408051608080820183526020808601518352610160860151818401908152918601518385019081526101408701516060850152868501515f908152600b909252939020825181559051600182015591519091906002820190610c5c9082611dd4565b5060608201516003820190610c719082611dd4565b50506009545f9150610c84906001611ea2565b6040808501515f838152600c602090815292902055840151909150610ca9818361129b565b604080850151905183907fc782fc6dac67eab0b579c7c939c3d6a06215f15bd682de13060712766401da6a905f90a350505050565b6001600160a01b038216610d1057604051630b61174360e31b81526001600160a01b0383166004820152602401610482565b6001600160a01b038381165f81815260066020908152604080832094871680845294825291829020805460ff191686151590811790915591519182527f17307eab39ab6107e8899845ad3d59bd9653f200f220920489ca2b5937696c31910160405180910390a3505050565b6001600160a01b0383163b15610e9d57604051630a85bd0160e11b81526001600160a01b0384169063150b7a0290610dbe908890889087908790600401611eb5565b6020604051808303815f875af1925050508015610df8575060408051601f3d908101601f19168201909252610df591810190611ee7565b60015b610e5f573d808015610e25576040519150601f19603f3d011682016040523d82523d5f602084013e610e2a565b606091505b5080515f03610e5757604051633250574960e11b81526001600160a01b0385166004820152602401610482565b805160208201fd5b6001600160e01b03198116630a85bd0160e11b14610e9b57604051633250574960e11b81526001600160a01b0385166004820152602401610482565b505b5050505050565b60605f610eb0836112fc565b60010190505f816001600160401b03811115610ece57610ece6115b8565b6040519080825280601f01601f191660200182016040528015610ef8576020820181803683370190505b5090508181016020015b5f19016f181899199a1a9b1b9c1cb0b131b232b360811b600a86061a8153600a8504945084610f0257509392505050565b8080610f4757506001600160a01b03821615155b15611008575f610f5684610a8e565b90506001600160a01b03831615801590610f825750826001600160a01b0316816001600160a01b031614155b8015610f955750610f938184610a12565b155b15610fbe5760405163a9fbf51f60e01b81526001600160a01b0384166004820152602401610482565b81156110065783856001600160a01b0316826001600160a01b03167f8c5be1e5ebec7d5bd14f71427d1e84f3dd0314c0f7b2291e5b200ac8c7c3b92560405160405180910390a45b505b50505f90815260056020526040902080546001600160a01b0319166001600160a01b0392909216919091179055565b5f828152600360205260408120546001600160a01b0390811690831615611063576110638184866113d3565b6001600160a01b0381161561109d5761107e5f855f5f610f33565b6001600160a01b0381165f90815260046020526040902080545f190190555b6001600160a01b038516156110cb576001600160a01b0385165f908152600460205260409020805460010190555b5f8481526003602052604080822080546001600160a01b0319166001600160a01b0389811691821790925591518793918516917fddf252ad1be2c89b69c2b068fc378daa952ba7f163c4a11628f55a4df523b3ef91a4949350505050565b5f611133836105cc565b5f838152600860209081526040808320546001600160a01b0388168452600790925290912091925090818314611188575f83815260208281526040808320548584528184208190558352600890915290208290555b5f938452600860209081526040808620869055938552525081205550565b6009545f906111b790600190611f02565b5f838152600a6020526040812054600980549394509092849081106111de576111de611942565b905f5260205f200154905080600983815481106111fd576111fd611942565b5f918252602080832090910192909255828152600a9091526040808220849055858252812055600980548061123457611234611f15565b600190038181905f5260205f20015f9055905550505050565b5f6001611259846105cc565b6112639190611f02565b6001600160a01b039093165f908152600760209081526040808320868452825280832085905593825260089052919091209190915550565b6001600160a01b0382166112c457604051633250574960e11b81525f6004820152602401610482565b5f6112d083835f610ad3565b90506001600160a01b03811615610568576040516339e3563760e11b81525f6004820152602401610482565b5f8072184f03e93ff9f4daa797ed6e38ed64bf6a1f0160401b831061133a5772184f03e93ff9f4daa797ed6e38ed64bf6a1f0160401b830492506040015b6d04ee2d6d415b85acef81000000008310611366576d04ee2d6d415b85acef8100000000830492506020015b662386f26fc10000831061138457662386f26fc10000830492506010015b6305f5e100831061139c576305f5e100830492506008015b61271083106113b057612710830492506004015b606483106113c2576064830492506002015b600a83106103915760010192915050565b6113de838383611437565b610568576001600160a01b03831661140c57604051637e27328960e01b815260048101829052602401610482565b60405163177e802f60e01b81526001600160a01b038316600482015260248101829052604401610482565b5f6001600160a01b03831615801590610b9e5750826001600160a01b0316846001600160a01b0316148061147057506114708484610a12565b80610b9e5750505f908152600560205260409020546001600160a01b03908116911614919050565b6001600160e01b0319811681146114ad575f5ffd5b50565b5f602082840312156114c0575f5ffd5b813561084b81611498565b5f81518084528060208401602086015e5f602082860101526020601f19601f83011685010191505092915050565b602081525f61084b60208301846114cb565b5f6020828403121561151b575f5ffd5b5035919050565b80356001600160a01b0381168114611538575f5ffd5b919050565b5f5f6040838503121561154e575f5ffd5b61155783611522565b946020939093013593505050565b5f5f5f60608486031215611577575f5ffd5b61158084611522565b925061158e60208501611522565b929592945050506040919091013590565b5f602082840312156115af575f5ffd5b61084b82611522565b634e487b7160e01b5f52604160045260245ffd5b6040516101a081016001600160401b03811182821017156115ef576115ef6115b8565b60405290565b604051601f8201601f191681016001600160401b038111828210171561161d5761161d6115b8565b604052919050565b5f6001600160401b0382111561163d5761163d6115b8565b50601f01601f191660200190565b5f82601f83011261165a575f5ffd5b813561166d61166882611625565b6115f5565b818152846020838601011115611681575f5ffd5b816020850160208301375f918101602001919091529392505050565b5f5f604083850312156116ae575f5ffd5b82356001600160401b038111156116c3575f5ffd5b6116cf8582860161164b565b92505060208301356001600160401b038111156116ea575f5ffd5b6116f68582860161164b565b9150509250929050565b80151581146114ad575f5ffd5b5f5f6040838503121561171e575f5ffd5b61172783611522565b9150602083013561173781611700565b809150509250929050565b848152836020820152608060408201525f61176060808301856114cb565b828103606084015261177281856114cb565b979650505050505050565b5f5f5f6060848603121561178f575f5ffd5b833592506020840135915060408401356001600160401b038111156117b2575f5ffd5b6117be8682870161164b565b9150509250925092565b5f5f5f5f608085870312156117db575f5ffd5b6117e485611522565b93506117f260208601611522565b92506040850135915060608501356001600160401b03811115611813575f5ffd5b61181f8782880161164b565b91505092959194509250565b5f5f83601f84011261183b575f5ffd5b5081356001600160401b03811115611851575f5ffd5b602083019150836020828501011115611868575f5ffd5b9250929050565b5f5f5f5f60408587031215611882575f5ffd5b84356001600160401b03811115611897575f5ffd5b6118a38782880161182b565b90955093505060208501356001600160401b038111156118c1575f5ffd5b6118cd8782880161182b565b95989497509550505050565b5f5f604083850312156118ea575f5ffd5b6118f383611522565b915061190160208401611522565b90509250929050565b600181811c9082168061191e57607f821691505b60208210810361193c57634e487b7160e01b5f52602260045260245ffd5b50919050565b634e487b7160e01b5f52603260045260245ffd5b5f82601f830112611965575f5ffd5b61196f60806115f5565b806080840185811115611980575f5ffd5b845b8181101561199a578051845260209384019301611982565b509095945050505050565b5f82601f8301126119b4575f5ffd5b81516119c261166882611625565b8181528460208386010111156119d6575f5ffd5b8160208501602083015e5f918101602001919091529392505050565b5f82601f830112611a01575f5ffd5b81516001600160401b03811115611a1a57611a1a6115b8565b8060051b611a2a602082016115f5565b91825260208185018101929081019086841115611a45575f5ffd5b6020860192505b83831015611a8a5782516001600160401b03811115611a69575f5ffd5b611a78886020838a01016119a5565b83525060209283019290910190611a4c565b9695505050505050565b5f82601f830112611aa3575f5ffd5b611aad60606115f5565b806060840185811115611abe575f5ffd5b845b8181101561199a578051611ad381611700565b845260209384019301611ac0565b5f60208284031215611af1575f5ffd5b81516001600160401b03811115611b06575f5ffd5b82016102408185031215611b18575f5ffd5b611b206115cc565b815181526020808301519082015260408083015190820152611b458560608401611956565b606082015260e08201516001600160401b03811115611b62575f5ffd5b611b6e868285016119a5565b6080830152506101008201516001600160401b03811115611b8d575f5ffd5b611b99868285016119f2565b60a0830152506101208201516001600160401b03811115611bb8575f5ffd5b611bc4868285016119a5565b60c0830152506101408201516001600160401b03811115611be3575f5ffd5b611bef868285016119a5565b60e0830152506101608201516001600160401b03811115611c0e575f5ffd5b611c1a868285016119a5565b610100830152506101808201516001600160401b03811115611c3a575f5ffd5b611c46868285016119a5565b610120830152506101a08201516001600160401b03811115611c66575f5ffd5b611c72868285016119a5565b610140830152506101c0820151610160820152611c93856101e08401611a94565b610180820152949350505050565b5f81518060208401855e5f93019283525090919050565b5f610b9e611cc68386611ca1565b84611ca1565b5f5f85851115611cda575f5ffd5b83861115611ce6575f5ffd5b5050820193919092039150565b80356020831015610391575f19602084900360031b1b1692915050565b60f886901b6001600160f81b031916815260ff198516600182015260208101849052818360408301375f9101604001908152949350505050565b838152818360208301375f910160200190815292915050565b604081525f611d7560408301856114cb565b8281036020840152611d8781856114cb565b95945050505050565b601f82111561056857805f5260205f20601f840160051c81016020851015611db55750805b601f840160051c820191505b81811015610e9d575f8155600101611dc1565b81516001600160401b03811115611ded57611ded6115b8565b611e0181611dfb845461190a565b84611d90565b6020601f821160018114611e33575f8315611e1c5750848201515b5f19600385901b1c1916600184901b178455610e9d565b5f84815260208120601f198516915b82811015611e625787850151825560209485019460019092019101611e42565b5084821015611e7f57868401515f19600387901b60f8161c191681555b50505050600190811b01905550565b634e487b7160e01b5f52601160045260245ffd5b8082018082111561039157610391611e8e565b6001600160a01b03858116825284166020820152604081018390526080606082018190525f90611a8a908301846114cb565b5f60208284031215611ef7575f5ffd5b815161084b81611498565b8181038181111561039157610391611e8e565b634e487b7160e01b5f52603160045260245ffdfea2646970667358221220db4b5303f46e0199936dab985e87723cc9c5f7ec415d5cdd0543b899bc02f59864736f6c634300081c0033",
  "linkReferences": {},
  "deployedLinkReferences": {},
  "immutableReferences": {
    "6831": [
      {
        "length": 32,
        "start": 1564
      },
      {
        "length": 32,
        "start": 2410
      }
    ],
    "10053": [
      {
        "length": 32,
        "start": 724
      },
      {
        "length": 32,
        "start": 786
      },
      {
        "length": 32,
        "start": 2317
      }
    ]
  },
  "inputSourceName": "project/contracts/PassportBoundNFT.sol",
  "buildInfoId": "solc-0_8_28-84087ae5fd7fe51c2e00b3bffd8f032c05c111d5"
}