{
  "_format": "hh3-artifact-1",
  "contractName": "PassportBoundNFT",
  "sourceName": "contracts/PassportBoundNFT.sol",
  "abi": [
    {
      "inputs": [
        {
          "internalType": "address",
          "name": "identityVerificationHubV2Address",
          "type": "address"
        },
        {
          "internalType": "string",
          "name": "scopeSeed",
          "type": "string"
        },
        {
          "components": [
            {
              "internalType": "uint256",
              "name": "olderThan",
              "type": "uint256"
            },
            {
              "internalType": "string[]",
              "name": "forbiddenCountries",
              "type": "string[]"
            },
            {
              "internalType": "bool",
              "name": "ofacEnabled",
              "type": "bool"
            }
          ],
          "internalType": "struct SelfUtils.UnformattedVerificationConfigV2",
          "name": "_verificationConfig",
          "type": "tuple"
        },
        {
          "internalType": "string",
          "name": "issuingState",
          "type": "string"
        }
      ],
      "stateMutability": "nonpayable",
      "type": "constructor"
    },
    {
      "inputs": [],
      "name": "ERC721EnumerableForbiddenBatchMint",
      "type": "error"
    },
    {
      "inputs": [
        {
          "internalType": "address",
          "name": "sender",
          "type": "address"
        },
        {
          "internalType": "uint256",
          "name": "tokenId",
          "type": "uint256"
        },
        {
          "internalType": "address",
          "name": "owner",
          "type": "address"
        }
      ],
      "name": "ERC721IncorrectOwner",
      "type": "error"
    },
    {
      "inputs": [
        {
          "internalType": "address",
          "name": "operator",
          "type": "address"
        },
        {
          "internalType": "uint256",
          "name": "tokenId",
          "type": "uint256"
        }
      ],
      "name": "ERC721InsufficientApproval",
      "type": "error"
    },
    {
      "inputs": [
        {
          "internalType": "address",
          "name": "approver",
          "type": "address"
        }
      ],
      "name": "ERC721InvalidApprover",
      "type": "error"
    },
    {
      "inputs": [
        {
          "internalType": "address",
          "name": "operator",
          "type": "address"
        }
      ],
      "name": "ERC721InvalidOperator",
      "type": "error"
    },
    {
      "inputs": [
        {
          "internalType": "address",
          "name": "owner",
          "type": "address"
        }
      ],
      "name": "ERC721InvalidOwner",
      "type": "error"
    },
    {
      "inputs": [
        {
          "internalType": "address",
          "name": "receiver",
          "type": "address"
        }
      ],
      "name": "ERC721InvalidReceiver",
      "type": "error"
    },
    {
      "inputs": [
        {
          "internalType": "address",
          "name": "sender",
          "type": "address"
        }
      ],
      "name": "ERC721InvalidSender",
      "type": "error"
    },
    {
      "inputs": [
        {
          "internalType": "uint256",
          "name": "tokenId",
          "type": "uint256"
        }
      ],
      "name": "ERC721NonexistentToken",
      "type": "error"
    },
    {
      "inputs": [
        {
          "internalType": "address",
          "name": "owner",
          "type": "address"
        },
        {
          "internalType": "uint256",
          "name": "index",
          "type": "uint256"
        }
      ],
      "name": "ERC721OutOfBoundsIndex",
      "type": "error"
    },
    {
      "inputs": [],
      "name": "InvalidDataFormat",
      "type": "error"
    },
    {
      "inputs": [],
      "name": "InvalidIssuingState",
      "type": "error"
    },
    {
      "inputs": [],
      "name": "InvalidUserIdentifier",
      "type": "error"
    },
    {
      "inputs": [],
      "name": "PassportAlreadyMinted",
      "type": "error"
    },
    {
      "inputs": [],
      "name": "UnauthorizedCaller",
      "type": "error"
    },
    {
      "anonymous": false,
      "inputs": [
        {
          "indexed": true,
          "internalType": "address",
          "name": "owner",
          "type": "address"
        },
        {
          "indexed": true,
          "internalType": "address",
          "name": "approved",
          "type": "address"
        },
        {
          "indexed": true,
          "internalType": "uint256",
          "name": "tokenId",
          "type": "uint256"
        }
      ],
      "name": "Approval",
      "type": "event"
    },
    {
      "anonymous": false,
      "inputs": [
        {
          "indexed": true,
          "internalType": "address",
          "name": "owner",
          "type": "address"
        },
        {
          "indexed": true,
          "internalType": "address",
          "name": "operator",
          "type": "address"
        },
        {
          "indexed": false,
          "internalType": "bool",
          "name": "approved",
          "type": "bool"
        }
      ],
      "name": "ApprovalForAll",
      "type": "event"
    },
    {
      "anonymous": false,
      "inputs": [
        {
          "indexed": true,
          "internalType": "uint256",
          "name": "tokenId",
          "type": "uint256"
        },
        {
          "indexed": true,
          "internalType": "uint256",
          "name": "nullifier",
          "type": "uint256"
        }
      ],
      "name": "PassportMinted",
      "type": "event"
    },
    {
      "anonymous": false,
      "inputs": [
        {
          "indexed": true,
          "internalType": "address",
          "name": "from",
          "type": "address"
        },
        {
          "indexed": true,
          "internalType": "address",
          "name": "to",
          "type": "address"
        },
        {
          "indexed": true,
          "internalType": "uint256",
          "name": "tokenId",
          "type": "uint256"
        }
      ],
      "name": "Transfer",
      "type": "event"
    },
    {
      "inputs": [
        {
          "internalType": "address",
          "name": "to",
          "type": "address"
        },
        {
          "internalType": "uint256",
          "name": "tokenId",
          "type": "uint256"
        }
      ],
      "name": "approve",
      "outputs": [],
      "stateMutability": "nonpayable",
      "type": "function"
    },
    {
      "inputs": [
        {
          "internalType": "address",
          "name": "owner",
          "type": "address"
        }
      ],
      "name": "balanceOf",
      "outputs": [
        {
          "internalType": "uint256",
          "name": "",
          "type": "uint256"
        }
      ],
      "stateMutability": "view",
      "type": "function"
    },
    {
      "inputs": [
        {
          "internalType": "uint256",
          "name": "tokenId",
          "type": "uint256"
        }
      ],
      "name": "getApproved",
      "outputs": [
        {
          "internalType": "address",
          "name": "",
          "type": "address"
        }
      ],
      "stateMutability": "view",
      "type": "function"
    },
    {
      "inputs": [
        {
          "internalType": "bytes32",
          "name": "",
          "type": "bytes32"
        },
        {
          "internalType": "bytes32",
          "name": "",
          "type": "bytes32"
        },
        {
          "internalType": "bytes",
          "name": "",
          "type": "bytes"
        }
      ],
      "name": "getConfigId",
      "outputs": [
        {
          "internalType": "bytes32",
          "name": "",
          "type": "bytes32"
        }
      ],
      "stateMutability": "view",
      "type": "function"
    },
    {
      "inputs": [
        {
          "internalType": "address",
          "name": "owner",
          "type": "address"
        },
        {
          "internalType": "address",
          "name": "operator",
          "type": "address"
        }
      ],
      "name": "isApprovedForAll",
      "outputs": [
        {
          "internalType": "bool",
          "name": "",
          "type": "bool"
        }
      ],
      "stateMutability": "view",
      "type": "function"
    },
    {
      "inputs": [],
      "name": "issuingStateHash",
      "outputs": [
        {
          "internalType": "bytes32",
          "name": "",
          "type": "bytes32"
        }
      ],
      "stateMutability": "view",
      "type": "function"
    },
    {
      "inputs": [],
      "name": "name",
      "outputs": [
        {
          "internalType": "string",
          "name": "",
          "type": "string"
        }
      ],
      "stateMutability": "view",
      "type": "function"
    },
    {
      "inputs": [
        {
          "internalType": "bytes",
          "name": "output",
          "type": "bytes"
        },
        {
          "internalType": "bytes",
          "name": "userData",
          "type": "bytes"
        }
      ],
      "name": "onVerificationSuccess",
      "outputs": [],
      "stateMutability": "nonpayable",
      "type": "function"
    },
    {
      "inputs": [
        {
          "internalType": "uint256",
          "name": "tokenId",
          "type": "uint256"
        }
      ],
      "name": "ownerOf",
      "outputs": [
        {
          "internalType": "address",
          "name": "",
          "type": "address"
        }
      ],
      "stateMutability": "view",
      "type": "function"
    },
    {
      "inputs": [
        {
          "internalType": "uint256",
          "name": "nullifier",
          "type": "uint256"
        }
      ],
      "name": "passportData",
      "outputs": [
        {
          "internalType": "uint256",
          "name": "userId",
          "type": "uint256"
        },
        {
          "internalType": "uint256",
          "name": "olderThan",
          "type": "uint256"
        },
        {
          "internalType": "string",
          "name": "issuingState",
          "type": "string"
        },
        {
          "internalType": "string",
          "name": "expiryDate",
          "type": "string"
        }
      ],
      "stateMutability": "view",
      "type": "function"
    },
    {
      "inputs": [
        {
          "internalType": "address",
          "name": "from",
          "type": "address"
        },
        {
          "internalType": "address",
          "name": "to",
          "type": "address"
        },
        {
          "internalType": "uint256",
          "name": "tokenId",
          "type": "uint256"
        }
      ],
      "name": "safeTransferFrom",
      "outputs": [],
      "stateMutability": "nonpayable",
      "type": "function"
    },
    {
      "inputs": [
        {
          "internalType": "address",
          "name": "from",
          "type": "address"
        },
        {
          "internalType": "address",
          "name": "to",
          "type": "address"
        },
        {
          "internalType": "uint256",
          "name": "tokenId",
          "type": "uint256"
        },
        {
          "internalType": "bytes",
          "name": "data",
          "type": "bytes"
        }
      ],
      "name": "safeTransferFrom",
      "outputs": [],
      "stateMutability": "nonpayable",
      "type": "function"
    },
    {
      "inputs": [],
      "name": "scope",
      "outputs": [
        {
          "internalType": "uint256",
          "name": "",
          "type": "uint256"
        }
      ],
      "stateMutability": "view",
      "type": "function"
    },
    {
      "inputs": [
        {
          "internalType": "address",
          "name": "operator",
          "type": "address"
        },
        {
          "internalType": "bool",
          "name": "approved",
          "type": "bool"
        }
      ],
      "name": "setApprovalForAll",
      "outputs": [],
      "stateMutability": "nonpayable",
      "type": "function"
    },
    {
      "inputs": [
        {
          "internalType": "bytes4",
          "name": "interfaceId",
          "type": "bytes4"
        }
      ],
      "name": "supportsInterface",
      "outputs": [
        {
          "internalType": "bool",
          "name": "",
          "type": "bool"
        }
      ],
      "stateMutability": "view",
      "type": "function"
    },
    {
      "inputs": [],
      "name": "symbol",
      "outputs": [
        {
          "internalType": "string",
          "name": "",
          "type": "string"
        }
      ],
      "stateMutability": "view",
      "type": "function"
    },
    {
      "inputs": [
        {
          "internalType": "uint256",
          "name": "index",
          "type": "uint256"
        }
      ],
      "name": "tokenByIndex",
      "outputs": [
        {
          "internalType": "uint256",
          "name": "",
          "type": "uint256"
        }
      ],
      "stateMutability": "view",
      "type": "function"
    },
    {
      "inputs": [
        {
          "internalType": "uint256",
          "name": "tokenId",
          "type": "uint256"
        }
      ],
      "name": "tokenIdToNullifier",
      "outputs": [
        {
          "internalType": "uint256",
          "name": "nullifier",
          "type": "uint256"
        }
      ],
      "stateMutability": "view",
      "type": "function"
    },
    {
      "inputs": [
        {
          "internalType": "address",
          "name": "owner",
          "type": "address"
        },
        {
          "internalType": "uint256",
          "name": "index",
          "type": "uint256"
        }
      ],
      "name": "tokenOfOwnerByIndex",
      "outputs": [
        {
          "internalType": "uint256",
          "name": "",
          "type": "uint256"
        }
      ],
      "stateMutability": "view",
      "type": "function"
    },
    {
      "inputs": [
        {
          "internalType": "uint256",
          "name": "tokenId",
          "type": "uint256"
        }
      ],
      "name": "tokenURI",
      "outputs": [
        {
          "internalType": "string",
          "name": "",
          "type": "string"
        }
      ],
      "stateMutability": "view",
      "type": "function"
    },
    {
      "inputs": [],
      "name": "totalSupply",
      "outputs": [
        {
          "internalType": "uint256",
          "name": "",
          "type": "uint256"
        }
      ],
      "stateMutability": "view",
      "type": "function"
    },
    {
      "inputs": [
        {
          "internalType": "address",
          "name": "from",
          "type": "address"
        },
        {
          "internalType": "address",
          "name": "to",
          "type": "address"
        },
        {
          "internalType": "uint256",
          "name": "tokenId",
          "type": "uint256"
        }
      ],
      "name": "transferFrom",
      "outputs": [],
      "stateMutability": "nonpayable",
      "type": "function"
    },
    {
      "inputs": [],
      "name": "verificationConfigId",
      "outputs": [
        {
          "internalType": "bytes32",
          "name": "",
          "type": "bytes32"
        }
      ],
      "stateMutability": "view",
      "type": "function"
    },
    {
      "inputs": [
        {
          "internalType": "bytes",
          "name": "proofPayload",
          "type": "bytes"
        },
        {
          "internalType": "bytes",
          "name": "userContextData",
          "type": "bytes"
        }
      ],
      "name": "verifySelfProof",
      "outputs": [],
      "stateMutability": "nonpayable",
      "type": "function"
    }
  ],
  "bytecode": "0x60e060405234801561000f575f5ffd5b506040516151d53803806151d583398181016040528101906100319190610f99565b6040518060400160405280601081526020017f50617373706f7274426f756e644e4654000000000000000000000000000000008152506040518060400160405280600581526020017f50424e465400000000000000000000000000000000000000000000000000000081525085858173ffffffffffffffffffffffffffffffffffffffff1660808173ffffffffffffffffffffffffffffffffffffffff16815250506100f130826100e66101c560201b60201c565b61021f60201b60201c565b5f81905550505081600190816101079190611258565b5080600290816101179190611258565b5050505f61012a8361031860201b60201c565b90508473ffffffffffffffffffffffffffffffffffffffff166309ddb091826040518263ffffffff1660e01b815260040161016591906114d8565b6020604051808303815f875af1158015610181573d5f5f3e3d5ffd5b505050506040513d601f19601f820116820180604052508101906101a59190611525565b60a08181525050818051906020012060c0818152505050505050506119b3565b5f5f46905061a4ec81036101f05773f134707a4c4a3a76b8410fc0294d620a7c34158191505061021c565b62aa044c810361021757730a782f7f9f8aac6e0bacaf3cd4aa292c3275c6f291505061021c565b5f9150505b90565b5f5f73ffffffffffffffffffffffffffffffffffffffff168273ffffffffffffffffffffffffffffffffffffffff160361025b575f9050610311565b5f61026c85846103f360201b60201c565b90505f61027e856104e460201b60201c565b90508373ffffffffffffffffffffffffffffffffffffffff1663561558fe6040518060400160405280858152602001848152506040518263ffffffff1660e01b81526004016102cd91906115cf565b602060405180830381865afa1580156102e8573d5f5f3e3d5ffd5b505050506040513d601f19601f8201168201806040525081019061030c91906115e8565b925050505b9392505050565b610320610ba3565b610328610bdf565b8260400151815f600381106103405761033f611613565b5b60200201901515908115158152505082604001518160016003811061036857610367611613565b5b6020020190151590811515815250508260400151816002600381106103905761038f611613565b5b6020020190151590811515815250506040518060a001604052805f855f01511115158152602001845f015181526020015f85602001515111151581526020016103e285602001516105eb60201b60201c565b815260200182815250915050919050565b5f5f610404846107b360201b60201c565b90505f61042761041c835f601f610ab160201b60201c565b6104e460201b60201c565b90505f61044b61044084601f602a610ab160201b60201c565b6104e460201b60201c565b90508473ffffffffffffffffffffffffffffffffffffffff1663561558fe6040518060400160405280858152602001848152506040518263ffffffff1660e01b815260040161049a91906115cf565b602060405180830381865afa1580156104b5573d5f5f3e3d5ffd5b505050506040513d601f19601f820116820180604052508101906104d991906115e8565b935050505092915050565b5f5f829050601f8151111561052e576040517f08c379a0000000000000000000000000000000000000000000000000000000008152600401610525906116c0565b60405180910390fd5b5f5f90505f5f90505b82518110156105e057607f83828151811061055557610554611613565b5b602001015160f81c60f81b60f81c60ff1611156105a7576040517f08c379a000000000000000000000000000000000000000000000000000000000815260040161059e90611728565b60405180910390fd5b8281815181106105ba576105b9611613565b5b602001015160f81c60f81b60f81c60ff16600883901b1791508080600101915050610537565b508092505050919050565b6105f3610c01565b5f601f90505f6004905060605f5f90505b85518110156106a1575f86828151811061062157610620611613565b5b60200260200101519050600381511461066f576040517f08c379a0000000000000000000000000000000000000000000000000000000008152600401610666906117b6565b60405180910390fd5b8281604051602001610682929190611818565b6040516020818303038152906040529250508080600101915050610604565b505f815190505f8490505f81600183856106bb9190611868565b6106c5919061189b565b6106cf91906118fb565b90505f5f90505b81811080156106e457508581105b156107a7575f5f90505f5f90505b84811015610775575f818487610708919061192b565b6107129190611868565b905086811015610767575f8882815181106107305761072f611613565b5b602001015160f81c60f81b60f81c60ff1690505f836008610751919061192b565b90508082901b856107629190611868565b945050505b5080806001019150506106f2565b508089836004811061078a57610789611613565b5b60200201818152505050808061079f9061196c565b9150506106d6565b50505050505050919050565b60605f8273ffffffffffffffffffffffffffffffffffffffff165f1b90505f6040518060400160405280601081526020017f303132333435363738396162636465660000000000000000000000000000000081525090505f602a67ffffffffffffffff81111561082657610825610ca6565b5b6040519080825280601f01601f1916602001820160405280156108585781602001600182028036833780820191505090505b5090507f3000000000000000000000000000000000000000000000000000000000000000815f8151811061088f5761088e611613565b5b60200101907effffffffffffffffffffffffffffffffffffffffffffffffffffffffffffff191690815f1a9053507f7800000000000000000000000000000000000000000000000000000000000000816001815181106108f2576108f1611613565b5b60200101907effffffffffffffffffffffffffffffffffffffffffffffffffffffffffffff191690815f1a9053505f5f90505b6014811015610aa55782600485600c8461093f9190611868565b602081106109505761094f611613565b5b1a60f81b7effffffffffffffffffffffffffffffffffffffffffffffffffffffffffffff1916901c60f81c60ff168151811061098f5761098e611613565b5b602001015160f81c60f81b826002836109a8919061192b565b60026109b49190611868565b815181106109c5576109c4611613565b5b60200101907effffffffffffffffffffffffffffffffffffffffffffffffffffffffffffff191690815f1a90535082600f60f81b85600c84610a079190611868565b60208110610a1857610a17611613565b5b1a60f81b1660f81c60ff1681518110610a3457610a33611613565b5b602001015160f81c60f81b82600283610a4d919061192b565b6003610a599190611868565b81518110610a6a57610a69611613565b5b60200101907effffffffffffffffffffffffffffffffffffffffffffffffffffffffffffff191690815f1a9053508080600101915050610925565b50809350505050919050565b60605f8490505f8484610ac4919061189b565b67ffffffffffffffff811115610add57610adc610ca6565b5b6040519080825280601f01601f191660200182016040528015610b0f5781602001600182028036833780820191505090505b5090505f8590505b84811015610b9657828181518110610b3257610b31611613565b5b602001015160f81c60f81b828783610b4a919061189b565b81518110610b5b57610b5a611613565b5b60200101907effffffffffffffffffffffffffffffffffffffffffffffffffffffffffffff191690815f1a9053508080600101915050610b17565b5080925050509392505050565b6040518060a001604052805f151581526020015f81526020015f15158152602001610bcc610c01565b8152602001610bd9610bdf565b81525090565b6040518060600160405280600390602082028036833780820191505090505090565b6040518060800160405280600490602082028036833780820191505090505090565b5f604051905090565b5f5ffd5b5f5ffd5b5f73ffffffffffffffffffffffffffffffffffffffff82169050919050565b5f610c5d82610c34565b9050919050565b610c6d81610c53565b8114610c77575f5ffd5b50565b5f81519050610c8881610c64565b92915050565b5f5ffd5b5f5ffd5b5f601f19601f8301169050919050565b7f4e487b71000000000000000000000000000000000000000000000000000000005f52604160045260245ffd5b610cdc82610c96565b810181811067ffffffffffffffff82111715610cfb57610cfa610ca6565b5b80604052505050565b5f610d0d610c23565b9050610d198282610cd3565b919050565b5f67ffffffffffffffff821115610d3857610d37610ca6565b5b610d4182610c96565b9050602081019050919050565b8281835e5f83830152505050565b5f610d6e610d6984610d1e565b610d04565b905082815260208101848484011115610d8a57610d89610c92565b5b610d95848285610d4e565b509392505050565b5f82601f830112610db157610db0610c8e565b5b8151610dc1848260208601610d5c565b91505092915050565b5f5ffd5b5f5ffd5b5f819050919050565b610de481610dd2565b8114610dee575f5ffd5b50565b5f81519050610dff81610ddb565b92915050565b5f67ffffffffffffffff821115610e1f57610e1e610ca6565b5b602082029050602081019050919050565b5f5ffd5b5f610e46610e4184610e05565b610d04565b90508083825260208201905060208402830185811115610e6957610e68610e30565b5b835b81811015610eb057805167ffffffffffffffff811115610e8e57610e8d610c8e565b5b808601610e9b8982610d9d565b85526020850194505050602081019050610e6b565b5050509392505050565b5f82601f830112610ece57610ecd610c8e565b5b8151610ede848260208601610e34565b91505092915050565b5f8115159050919050565b610efb81610ee7565b8114610f05575f5ffd5b50565b5f81519050610f1681610ef2565b92915050565b5f60608284031215610f3157610f30610dca565b5b610f3b6060610d04565b90505f610f4a84828501610df1565b5f83015250602082015167ffffffffffffffff811115610f6d57610f6c610dce565b5b610f7984828501610eba565b6020830152506040610f8d84828501610f08565b60408301525092915050565b5f5f5f5f60808587031215610fb157610fb0610c2c565b5b5f610fbe87828801610c7a565b945050602085015167ffffffffffffffff811115610fdf57610fde610c30565b5b610feb87828801610d9d565b935050604085015167ffffffffffffffff81111561100c5761100b610c30565b5b61101887828801610f1c565b925050606085015167ffffffffffffffff81111561103957611038610c30565b5b61104587828801610d9d565b91505092959194509250565b5f81519050919050565b7f4e487b71000000000000000000000000000000000000000000000000000000005f52602260045260245ffd5b5f600282049050600182168061109f57607f821691505b6020821081036110b2576110b161105b565b5b50919050565b5f819050815f5260205f209050919050565b5f6020601f8301049050919050565b5f82821b905092915050565b5f600883026111147fffffffffffffffffffffffffffffffffffffffffffffffffffffffffffffffff826110d9565b61111e86836110d9565b95508019841693508086168417925050509392505050565b5f819050919050565b5f61115961115461114f84610dd2565b611136565b610dd2565b9050919050565b5f819050919050565b6111728361113f565b61118661117e82611160565b8484546110e5565b825550505050565b5f5f905090565b61119d61118e565b6111a8818484611169565b505050565b5b818110156111cb576111c05f82611195565b6001810190506111ae565b5050565b601f821115611210576111e1816110b8565b6111ea846110ca565b810160208510156111f9578190505b61120d611205856110ca565b8301826111ad565b50505b505050565b5f82821c905092915050565b5f6112305f1984600802611215565b1980831691505092915050565b5f6112488383611221565b9150826002028217905092915050565b61126182611051565b67ffffffffffffffff81111561127a57611279610ca6565b5b6112848254611088565b61128f8282856111cf565b5f60209050601f8311600181146112c0575f84156112ae578287015190505b6112b8858261123d565b86555061131f565b601f1984166112ce866110b8565b5f5b828110156112f5578489015182556001820191506020850194506020810190506112d0565b86831015611312578489015161130e601f891682611221565b8355505b6001600288020188555050505b505050505050565b61133081610ee7565b82525050565b61133f81610dd2565b82525050565b5f60049050919050565b5f81905092915050565b5f819050919050565b5f61136d8383611336565b60208301905092915050565b5f602082019050919050565b61138e81611345565b611398818461134f565b92506113a382611359565b805f5b838110156113d35781516113ba8782611362565b96506113c583611379565b9250506001810190506113a6565b505050505050565b5f60039050919050565b5f81905092915050565b5f819050919050565b5f6114038383611327565b60208301905092915050565b5f602082019050919050565b611424816113db565b61142e81846113e5565b9250611439826113ef565b805f5b8381101561146957815161145087826113f8565b965061145b8361140f565b92505060018101905061143c565b505050505050565b61014082015f8201516114865f850182611327565b5060208201516114996020850182611336565b5060408201516114ac6040850182611327565b5060608201516114bf6060850182611385565b5060808201516114d260e085018261141b565b50505050565b5f610140820190506114ec5f830184611471565b92915050565b5f819050919050565b611504816114f2565b811461150e575f5ffd5b50565b5f8151905061151f816114fb565b92915050565b5f6020828403121561153a57611539610c2c565b5b5f61154784828501611511565b91505092915050565b5f60029050919050565b5f81905092915050565b5f819050919050565b5f602082019050919050565b61158281611550565b61158c818461155a565b925061159782611564565b805f5b838110156115c75781516115ae8782611362565b96506115b98361156d565b92505060018101905061159a565b505050505050565b5f6040820190506115e25f830184611579565b92915050565b5f602082840312156115fd576115fc610c2c565b5b5f61160a84828501610df1565b91505092915050565b7f4e487b71000000000000000000000000000000000000000000000000000000005f52603260045260245ffd5b5f82825260208201905092915050565b7f537472696e6720746f6f206c6f6e6720666f7220426967496e7420636f6e76655f8201527f7273696f6e000000000000000000000000000000000000000000000000000000602082015250565b5f6116aa602583611640565b91506116b582611650565b604082019050919050565b5f6020820190508181035f8301526116d78161169e565b9050919050565b7f4e6f6e2d415343494920636861726163746572206465746563746564000000005f82015250565b5f611712601c83611640565b915061171d826116de565b602082019050919050565b5f6020820190508181035f83015261173f81611706565b9050919050565b7f496e76616c696420636f756e74727920636f64653a206d7573742062652065785f8201527f6163746c7920332063686172616374657273206c6f6e67000000000000000000602082015250565b5f6117a0603783611640565b91506117ab82611746565b604082019050919050565b5f6020820190508181035f8301526117cd81611794565b9050919050565b5f81519050919050565b5f81905092915050565b5f6117f2826117d4565b6117fc81856117de565b935061180c818560208601610d4e565b80840191505092915050565b5f61182382856117e8565b915061182f82846117e8565b91508190509392505050565b7f4e487b71000000000000000000000000000000000000000000000000000000005f52601160045260245ffd5b5f61187282610dd2565b915061187d83610dd2565b92508282019050808211156118955761189461183b565b5b92915050565b5f6118a582610dd2565b91506118b083610dd2565b92508282039050818111156118c8576118c761183b565b5b92915050565b7f4e487b71000000000000000000000000000000000000000000000000000000005f52601260045260245ffd5b5f61190582610dd2565b915061191083610dd2565b9250826119205761191f6118ce565b5b828204905092915050565b5f61193582610dd2565b915061194083610dd2565b925082820261194e81610dd2565b915082820484148315176119655761196461183b565b5b5092915050565b5f61197682610dd2565b91507fffffffffffffffffffffffffffffffffffffffffffffffffffffffffffffffff82036119a8576119a761183b565b5b600182019050919050565b60805160a05160c0516137e36119f25f395f81816107ef01526112cb01525f8181610bf30152610c4201525f81816109690152610e2601526137e35ff3fe608060405234801561000f575f5ffd5b5060043610610156575f3560e01c80636e62d0a8116100c1578063ada1b3191161007a578063ada1b319146103ff578063b88d4fde1461042f578063bb4437441461044b578063c87b56dd14610469578063d161802b14610499578063e985e9c5146104b557610156565b80636e62d0a81461032857806370a08231146103465780638d2d8d6a1461037657806395d89b4114610392578063a22cb465146103b0578063a6670ebe146103cc57610156565b80632f745c59116101135780632f745c591461022e57806342842e0e1461025e578063463c67681461027a5780634f6ccce71461029857806359c7237e146102c85780636352211e146102f857610156565b806301ffc9a71461015a57806306fdde031461018a578063081812fc146101a8578063095ea7b3146101d857806318160ddd146101f457806323b872dd14610212575b5f5ffd5b610174600480360381019061016f919061231e565b6104e5565b6040516101819190612363565b60405180910390f35b61019261055e565b60405161019f91906123ec565b60405180910390f35b6101c260048036038101906101bd919061243f565b6105ee565b6040516101cf91906124a9565b60405180910390f35b6101f260048036038101906101ed91906124ec565b610609565b005b6101fc61061f565b6040516102099190612539565b60405180910390f35b61022c60048036038101906102279190612552565b61062b565b005b610248600480360381019061024391906124ec565b61072a565b6040516102559190612539565b60405180910390f35b61027860048036038101906102739190612552565b6107ce565b005b6102826107ed565b60405161028f91906125ba565b60405180910390f35b6102b260048036038101906102ad919061243f565b610811565b6040516102bf9190612539565b60405180910390f35b6102e260048036038101906102dd919061243f565b610883565b6040516102ef9190612539565b60405180910390f35b610312600480360381019061030d919061243f565b610898565b60405161031f91906124a9565b60405180910390f35b6103306108a9565b60405161033d9190612539565b60405180910390f35b610360600480360381019061035b91906125d3565b6108b1565b60405161036d9190612539565b60405180910390f35b610390600480360381019061038b919061272a565b610967565b005b61039a610a12565b6040516103a791906123ec565b60405180910390f35b6103ca60048036038101906103c591906127ca565b610aa2565b005b6103e660048036038101906103e1919061243f565b610ab8565b6040516103f69493929190612808565b60405180910390f35b61041960048036038101906104149190612883565b610bf0565b60405161042691906125ba565b60405180910390f35b610449600480360381019061044491906128ef565b610c1b565b005b610453610c40565b60405161046091906125ba565b60405180910390f35b610483600480360381019061047e919061243f565b610c64565b60405161049091906123ec565b60405180910390f35b6104b360048036038101906104ae91906129cc565b610cca565b005b6104cf60048036038101906104ca9190612a4a565b610edb565b6040516104dc9190612363565b60405180910390f35b5f7f780e9d63000000000000000000000000000000000000000000000000000000007bffffffffffffffffffffffffffffffffffffffffffffffffffffffff1916827bffffffffffffffffffffffffffffffffffffffffffffffffffffffff19161480610557575061055682610f69565b5b9050919050565b60606001805461056d90612ab5565b80601f016020809104026020016040519081016040528092919081815260200182805461059990612ab5565b80156105e45780601f106105bb576101008083540402835291602001916105e4565b820191905f5260205f20905b8154815290600101906020018083116105c757829003601f168201915b5050505050905090565b5f6105f88261104a565b50610602826110d0565b9050919050565b61061b8282610616611109565b611110565b5050565b5f600980549050905090565b5f73ffffffffffffffffffffffffffffffffffffffff168273ffffffffffffffffffffffffffffffffffffffff160361069b575f6040517f64a0ae9200000000000000000000000000000000000000000000000000000000815260040161069291906124a9565b60405180910390fd5b5f6106ae83836106a9611109565b611122565b90508373ffffffffffffffffffffffffffffffffffffffff168173ffffffffffffffffffffffffffffffffffffffff1614610724578382826040517f64283d7b00000000000000000000000000000000000000000000000000000000815260040161071b93929190612ae5565b60405180910390fd5b50505050565b5f610734836108b1565b82106107795782826040517fa57d13dc000000000000000000000000000000000000000000000000000000008152600401610770929190612b1a565b60405180910390fd5b60075f8473ffffffffffffffffffffffffffffffffffffffff1673ffffffffffffffffffffffffffffffffffffffff1681526020019081526020015f205f8381526020019081526020015f2054905092915050565b6107e883838360405180602001604052805f815250610c1b565b505050565b7f000000000000000000000000000000000000000000000000000000000000000081565b5f61081a61061f565b821061085f575f826040517fa57d13dc000000000000000000000000000000000000000000000000000000008152600401610856929190612b1a565b60405180910390fd5b6009828154811061087357610872612b41565b5b905f5260205f2001549050919050565b600c602052805f5260405f205f915090505481565b5f6108a28261104a565b9050919050565b5f5f54905090565b5f5f73ffffffffffffffffffffffffffffffffffffffff168273ffffffffffffffffffffffffffffffffffffffff1603610922575f6040517f89c62b6400000000000000000000000000000000000000000000000000000000815260040161091991906124a9565b60405180910390fd5b60045f8373ffffffffffffffffffffffffffffffffffffffff1673ffffffffffffffffffffffffffffffffffffffff1681526020019081526020015f20549050919050565b7f000000000000000000000000000000000000000000000000000000000000000073ffffffffffffffffffffffffffffffffffffffff163373ffffffffffffffffffffffffffffffffffffffff16146109ec576040517f5c427cd900000000000000000000000000000000000000000000000000000000815260040160405180910390fd5b5f82806020019051810190610a019190613086565b9050610a0d818361123c565b505050565b606060028054610a2190612ab5565b80601f0160208091040260200160405190810160405280929190818152602001828054610a4d90612ab5565b8015610a985780601f10610a6f57610100808354040283529160200191610a98565b820191905f5260205f20905b815481529060010190602001808311610a7b57829003601f168201915b5050505050905090565b610ab4610aad611109565b8383611431565b5050565b600b602052805f5260405f205f91509050805f015490806001015490806002018054610ae390612ab5565b80601f0160208091040260200160405190810160405280929190818152602001828054610b0f90612ab5565b8015610b5a5780601f10610b3157610100808354040283529160200191610b5a565b820191905f5260205f20905b815481529060010190602001808311610b3d57829003601f168201915b505050505090806003018054610b6f90612ab5565b80601f0160208091040260200160405190810160405280929190818152602001828054610b9b90612ab5565b8015610be65780601f10610bbd57610100808354040283529160200191610be6565b820191905f5260205f20905b815481529060010190602001808311610bc957829003601f168201915b5050505050905084565b5f7f000000000000000000000000000000000000000000000000000000000000000090509392505050565b610c2684848461062b565b610c3a610c31611109565b8585858561159a565b50505050565b7f000000000000000000000000000000000000000000000000000000000000000081565b6060610c6f8261104a565b505f610c79611746565b90505f815111610c975760405180602001604052805f815250610cc2565b80610ca18461175c565b604051602001610cb2929190613107565b6040516020818303038152906040525b915050919050565b6020848490501015610d08576040517fa512e2ff00000000000000000000000000000000000000000000000000000000815260040160405180910390fd5b6040828290501015610d46576040517fa512e2ff00000000000000000000000000000000000000000000000000000000815260040160405180910390fd5b5f843590505f83835f90602092610d5f93929190613132565b90610d6a9190613182565b90505f8484602090604092610d8193929190613132565b90610d8c9190613182565b90505f85856040908092610da293929190613132565b8080601f0160208091040260200160405190810160405280939291908181526020018383808284375f81840152601f19601f8201169050808301925050505050505090505f610df2848484610bf0565b90505f60025f60081b5f548c8c604051602001610e139594939291906132b9565b60405160208183030381529060405290507f000000000000000000000000000000000000000000000000000000000000000073ffffffffffffffffffffffffffffffffffffffff1663f7e83aee82848b8b604051602001610e7693929190613324565b6040516020818303038152906040526040518363ffffffff1660e01b8152600401610ea292919061339f565b5f604051808303815f87803b158015610eb9575f5ffd5b505af1158015610ecb573d5f5f3e3d5ffd5b5050505050505050505050505050565b5f60065f8473ffffffffffffffffffffffffffffffffffffffff1673ffffffffffffffffffffffffffffffffffffffff1681526020019081526020015f205f8373ffffffffffffffffffffffffffffffffffffffff1673ffffffffffffffffffffffffffffffffffffffff1681526020019081526020015f205f9054906101000a900460ff16905092915050565b5f7f80ac58cd000000000000000000000000000000000000000000000000000000007bffffffffffffffffffffffffffffffffffffffffffffffffffffffff1916827bffffffffffffffffffffffffffffffffffffffffffffffffffffffff1916148061103357507f5b5e139f000000000000000000000000000000000000000000000000000000007bffffffffffffffffffffffffffffffffffffffffffffffffffffffff1916827bffffffffffffffffffffffffffffffffffffffffffffffffffffffff1916145b80611043575061104282611826565b5b9050919050565b5f5f6110558361188f565b90505f73ffffffffffffffffffffffffffffffffffffffff168173ffffffffffffffffffffffffffffffffffffffff16036110c757826040517f7e2732890000000000000000000000000000000000000000000000000000000081526004016110be9190612539565b60405180910390fd5b80915050919050565b5f60055f8381526020019081526020015f205f9054906101000a900473ffffffffffffffffffffffffffffffffffffffff169050919050565b5f33905090565b61111d83838360016118c8565b505050565b5f5f61112f858585611a87565b90505f73ffffffffffffffffffffffffffffffffffffffff168173ffffffffffffffffffffffffffffffffffffffff16036111725761116d84611c92565b6111b1565b8473ffffffffffffffffffffffffffffffffffffffff168173ffffffffffffffffffffffffffffffffffffffff16146111b0576111af8185611cd6565b5b5b5f73ffffffffffffffffffffffffffffffffffffffff168573ffffffffffffffffffffffffffffffffffffffff16036111f2576111ed84611dad565b611231565b8473ffffffffffffffffffffffffffffffffffffffff168173ffffffffffffffffffffffffffffffffffffffff16146112305761122f8585611e6d565b5b5b809150509392505050565b5f826020015103611279576040517ff0c426db00000000000000000000000000000000000000000000000000000000815260040160405180910390fd5b5f600b5f846040015181526020019081526020015f205f0154146112c9576040517fe1f3c53600000000000000000000000000000000000000000000000000000000815260040160405180910390fd5b7f00000000000000000000000000000000000000000000000000000000000000008260800151805190602001201461132d576040517fb5e76de700000000000000000000000000000000000000000000000000000000815260040160405180910390fd5b604051806080016040528083602001518152602001836101600151815260200183608001518152602001836101400151815250600b5f846040015181526020019081526020015f205f820151815f015560208201518160010155604082015181600201908161139c9190613568565b5060608201518160030190816113b29190613568565b509050505f60016113c161061f565b6113cb9190613664565b90508260400151600c5f8381526020019081526020015f20819055505f836020015190506113f98183611ef1565b8360400151827fc782fc6dac67eab0b579c7c939c3d6a06215f15bd682de13060712766401da6a60405160405180910390a350505050565b5f73ffffffffffffffffffffffffffffffffffffffff168273ffffffffffffffffffffffffffffffffffffffff16036114a157816040517f5b08ba1800000000000000000000000000000000000000000000000000000000815260040161149891906124a9565b60405180910390fd5b8060065f8573ffffffffffffffffffffffffffffffffffffffff1673ffffffffffffffffffffffffffffffffffffffff1681526020019081526020015f205f8473ffffffffffffffffffffffffffffffffffffffff1673ffffffffffffffffffffffffffffffffffffffff1681526020019081526020015f205f6101000a81548160ff0219169083151502179055508173ffffffffffffffffffffffffffffffffffffffff168373ffffffffffffffffffffffffffffffffffffffff167f17307eab39ab6107e8899845ad3d59bd9653f200f220920489ca2b5937696c318360405161158d9190612363565b60405180910390a3505050565b5f8373ffffffffffffffffffffffffffffffffffffffff163b111561173f578273ffffffffffffffffffffffffffffffffffffffff1663150b7a02868685856040518563ffffffff1660e01b81526004016115f89493929190613697565b6020604051808303815f875af192505050801561163357506040513d601f19601f8201168201806040525081019061163091906136f5565b60015b6116b4573d805f8114611661576040519150601f19603f3d011682016040523d82523d5f602084013e611666565b606091505b505f8151036116ac57836040517f64a0ae920000000000000000000000000000000000000000000000000000000081526004016116a391906124a9565b60405180910390fd5b805160208201fd5b63150b7a0260e01b7bffffffffffffffffffffffffffffffffffffffffffffffffffffffff1916817bffffffffffffffffffffffffffffffffffffffffffffffffffffffff19161461173d57836040517f64a0ae9200000000000000000000000000000000000000000000000000000000815260040161173491906124a9565b60405180910390fd5b505b5050505050565b606060405180602001604052805f815250905090565b60605f600161176a84611fe4565b0190505f8167ffffffffffffffff81111561178857611787612606565b5b6040519080825280601f01601f1916602001820160405280156117ba5781602001600182028036833780820191505090505b5090505f82602083010190505b60011561181b578080600190039150507f3031323334353637383961626364656600000000000000000000000000000000600a86061a8153600a85816118105761180f613720565b5b0494505f85036117c7575b819350505050919050565b5f7f01ffc9a7000000000000000000000000000000000000000000000000000000007bffffffffffffffffffffffffffffffffffffffffffffffffffffffff1916827bffffffffffffffffffffffffffffffffffffffffffffffffffffffff1916149050919050565b5f60035f8381526020019081526020015f205f9054906101000a900473ffffffffffffffffffffffffffffffffffffffff169050919050565b808061190057505f73ffffffffffffffffffffffffffffffffffffffff168273ffffffffffffffffffffffffffffffffffffffff1614155b15611a32575f61190f8461104a565b90505f73ffffffffffffffffffffffffffffffffffffffff168373ffffffffffffffffffffffffffffffffffffffff161415801561197957508273ffffffffffffffffffffffffffffffffffffffff168173ffffffffffffffffffffffffffffffffffffffff1614155b801561198c575061198a8184610edb565b155b156119ce57826040517fa9fbf51f0000000000000000000000000000000000000000000000000000000081526004016119c591906124a9565b60405180910390fd5b8115611a3057838573ffffffffffffffffffffffffffffffffffffffff168273ffffffffffffffffffffffffffffffffffffffff167f8c5be1e5ebec7d5bd14f71427d1e84f3dd0314c0f7b2291e5b200ac8c7c3b92560405160405180910390a45b505b8360055f8581526020019081526020015f205f6101000a81548173ffffffffffffffffffffffffffffffffffffffff021916908373ffffffffffffffffffffffffffffffffffffffff16021790555050505050565b5f5f611a928461188f565b90505f73ffffffffffffffffffffffffffffffffffffffff168373ffffffffffffffffffffffffffffffffffffffff1614611ad357611ad2818486612135565b5b5f73ffffffffffffffffffffffffffffffffffffffff168173ffffffffffffffffffffffffffffffffffffffff1614611b5e57611b125f855f5f6118c8565b600160045f8373ffffffffffffffffffffffffffffffffffffffff1673ffffffffffffffffffffffffffffffffffffffff1681526020019081526020015f205f82825403925050819055505b5f73ffffffffffffffffffffffffffffffffffffffff168573ffffffffffffffffffffffffffffffffffffffff1614611bdd57600160045f8773ffffffffffffffffffffffffffffffffffffffff1673ffffffffffffffffffffffffffffffffffffffff1681526020019081526020015f205f82825401925050819055505b8460035f8681526020019081526020015f205f6101000a81548173ffffffffffffffffffffffffffffffffffffffff021916908373ffffffffffffffffffffffffffffffffffffffff160217905550838573ffffffffffffffffffffffffffffffffffffffff168273ffffffffffffffffffffffffffffffffffffffff167fddf252ad1be2c89b69c2b068fc378daa952ba7f163c4a11628f55a4df523b3ef60405160405180910390a4809150509392505050565b600980549050600a5f8381526020019081526020015f2081905550600981908060018154018082558091505060019003905f5260205f20015f909190919091505550565b5f611ce0836108b1565b90505f60085f8481526020019081526020015f205490505f60075f8673ffffffffffffffffffffffffffffffffffffffff1673ffffffffffffffffffffffffffffffffffffffff1681526020019081526020015f209050828214611d7f575f815f8581526020019081526020015f2054905080825f8581526020019081526020015f20819055508260085f8381526020019081526020015f2081905550505b60085f8581526020019081526020015f205f9055805f8481526020019081526020015f205f90555050505050565b5f6001600980549050611dc0919061374d565b90505f600a5f8481526020019081526020015f205490505f60098381548110611dec57611deb612b41565b5b905f5260205f20015490508060098381548110611e0c57611e0b612b41565b5b905f5260205f20018190555081600a5f8381526020019081526020015f2081905550600a5f8581526020019081526020015f205f90556009805480611e5457611e53613780565b5b600190038181905f5260205f20015f9055905550505050565b5f6001611e79846108b1565b611e83919061374d565b90508160075f8573ffffffffffffffffffffffffffffffffffffffff1673ffffffffffffffffffffffffffffffffffffffff1681526020019081526020015f205f8381526020019081526020015f20819055508060085f8481526020019081526020015f2081905550505050565b5f73ffffffffffffffffffffffffffffffffffffffff168273ffffffffffffffffffffffffffffffffffffffff1603611f61575f6040517f64a0ae92000000000000000000000000000000000000000000000000000000008152600401611f5891906124a9565b60405180910390fd5b5f611f6d83835f611122565b90505f73ffffffffffffffffffffffffffffffffffffffff168173ffffffffffffffffffffffffffffffffffffffff1614611fdf575f6040517f73c6ac6e000000000000000000000000000000000000000000000000000000008152600401611fd691906124a9565b60405180910390fd5b505050565b5f5f5f90507a184f03e93ff9f4daa797ed6e38ed64bf6a1f0100000000000000008310612040577a184f03e93ff9f4daa797ed6e38ed64bf6a1f010000000000000000838161203657612035613720565b5b0492506040810190505b6d04ee2d6d415b85acef8100000000831061207d576d04ee2d6d415b85acef8100000000838161207357612072613720565b5b0492506020810190505b662386f26fc1000083106120ac57662386f26fc1000083816120a2576120a1613720565b5b0492506010810190505b6305f5e10083106120d5576305f5e10083816120cb576120ca613720565b5b0492506008810190505b61271083106120fa5761271083816120f0576120ef613720565b5b0492506004810190505b6064831061211d576064838161211357612112613720565b5b0492506002810190505b600a831061212c576001810190505b80915050919050565b6121408383836121f8565b6121f3575f73ffffffffffffffffffffffffffffffffffffffff168373ffffffffffffffffffffffffffffffffffffffff16036121b457806040517f7e2732890000000000000000000000000000000000000000000000000000000081526004016121ab9190612539565b60405180910390fd5b81816040517f177e802f0000000000000000000000000000000000000000000000000000000081526004016121ea929190612b1a565b60405180910390fd5b505050565b5f5f73ffffffffffffffffffffffffffffffffffffffff168373ffffffffffffffffffffffffffffffffffffffff16141580156122af57508273ffffffffffffffffffffffffffffffffffffffff168473ffffffffffffffffffffffffffffffffffffffff161480612270575061226f8484610edb565b5b806122ae57508273ffffffffffffffffffffffffffffffffffffffff16612296836110d0565b73ffffffffffffffffffffffffffffffffffffffff16145b5b90509392505050565b5f604051905090565b5f5ffd5b5f5ffd5b5f7fffffffff0000000000000000000000000000000000000000000000000000000082169050919050565b6122fd816122c9565b8114612307575f5ffd5b50565b5f81359050612318816122f4565b92915050565b5f60208284031215612333576123326122c1565b5b5f6123408482850161230a565b91505092915050565b5f8115159050919050565b61235d81612349565b82525050565b5f6020820190506123765f830184612354565b92915050565b5f81519050919050565b5f82825260208201905092915050565b8281835e5f83830152505050565b5f601f19601f8301169050919050565b5f6123be8261237c565b6123c88185612386565b93506123d8818560208601612396565b6123e1816123a4565b840191505092915050565b5f6020820190508181035f83015261240481846123b4565b905092915050565b5f819050919050565b61241e8161240c565b8114612428575f5ffd5b50565b5f8135905061243981612415565b92915050565b5f60208284031215612454576124536122c1565b5b5f6124618482850161242b565b91505092915050565b5f73ffffffffffffffffffffffffffffffffffffffff82169050919050565b5f6124938261246a565b9050919050565b6124a381612489565b82525050565b5f6020820190506124bc5f83018461249a565b92915050565b6124cb81612489565b81146124d5575f5ffd5b50565b5f813590506124e6816124c2565b92915050565b5f5f60408385031215612502576125016122c1565b5b5f61250f858286016124d8565b92505060206125208582860161242b565b9150509250929050565b6125338161240c565b82525050565b5f60208201905061254c5f83018461252a565b92915050565b5f5f5f60608486031215612569576125686122c1565b5b5f612576868287016124d8565b9350506020612587868287016124d8565b92505060406125988682870161242b565b9150509250925092565b5f819050919050565b6125b4816125a2565b82525050565b5f6020820190506125cd5f8301846125ab565b92915050565b5f602082840312156125e8576125e76122c1565b5b5f6125f5848285016124d8565b91505092915050565b5f5ffd5b5f5ffd5b7f4e487b71000000000000000000000000000000000000000000000000000000005f52604160045260245ffd5b61263c826123a4565b810181811067ffffffffffffffff8211171561265b5761265a612606565b5b80604052505050565b5f61266d6122b8565b90506126798282612633565b919050565b5f67ffffffffffffffff82111561269857612697612606565b5b6126a1826123a4565b9050602081019050919050565b828183375f83830152505050565b5f6126ce6126c98461267e565b612664565b9050828152602081018484840111156126ea576126e9612602565b5b6126f58482856126ae565b509392505050565b5f82601f830112612711576127106125fe565b5b81356127218482602086016126bc565b91505092915050565b5f5f604083850312156127405761273f6122c1565b5b5f83013567ffffffffffffffff81111561275d5761275c6122c5565b5b612769858286016126fd565b925050602083013567ffffffffffffffff81111561278a576127896122c5565b5b612796858286016126fd565b9150509250929050565b6127a981612349565b81146127b3575f5ffd5b50565b5f813590506127c4816127a0565b92915050565b5f5f604083850312156127e0576127df6122c1565b5b5f6127ed858286016124d8565b92505060206127fe858286016127b6565b9150509250929050565b5f60808201905061281b5f83018761252a565b612828602083018661252a565b818103604083015261283a81856123b4565b9050818103606083015261284e81846123b4565b905095945050505050565b612862816125a2565b811461286c575f5ffd5b50565b5f8135905061287d81612859565b92915050565b5f5f5f6060848603121561289a576128996122c1565b5b5f6128a78682870161286f565b93505060206128b88682870161286f565b925050604084013567ffffffffffffffff8111156128d9576128d86122c5565b5b6128e5868287016126fd565b9150509250925092565b5f5f5f5f60808587031215612907576129066122c1565b5b5f612914878288016124d8565b9450506020612925878288016124d8565b93505060406129368782880161242b565b925050606085013567ffffffffffffffff811115612957576129566122c5565b5b612963878288016126fd565b91505092959194509250565b5f5ffd5b5f5ffd5b5f5f83601f84011261298c5761298b6125fe565b5b8235905067ffffffffffffffff8111156129a9576129a861296f565b5b6020830191508360018202830111156129c5576129c4612973565b5b9250929050565b5f5f5f5f604085870312156129e4576129e36122c1565b5b5f85013567ffffffffffffffff811115612a0157612a006122c5565b5b612a0d87828801612977565b9450945050602085013567ffffffffffffffff811115612a3057612a2f6122c5565b5b612a3c87828801612977565b925092505092959194509250565b5f5f60408385031215612a6057612a5f6122c1565b5b5f612a6d858286016124d8565b9250506020612a7e858286016124d8565b9150509250929050565b7f4e487b71000000000000000000000000000000000000000000000000000000005f52602260045260245ffd5b5f6002820490506001821680612acc57607f821691505b602082108103612adf57612ade612a88565b5b50919050565b5f606082019050612af85f83018661249a565b612b05602083018561252a565b612b12604083018461249a565b949350505050565b5f604082019050612b2d5f83018561249a565b612b3a602083018461252a565b9392505050565b7f4e487b71000000000000000000000000000000000000000000000000000000005f52603260045260245ffd5b5f5ffd5b5f5ffd5b5f81519050612b8481612859565b92915050565b5f81519050612b9881612415565b92915050565b5f67ffffffffffffffff821115612bb857612bb7612606565b5b602082029050919050565b5f612bd5612bd084612b9e565b612664565b90508060208402830185811115612bef57612bee612973565b5b835b81811015612c185780612c048882612b8a565b845260208401935050602081019050612bf1565b5050509392505050565b5f82601f830112612c3657612c356125fe565b5b6004612c43848285612bc3565b91505092915050565b5f67ffffffffffffffff821115612c6657612c65612606565b5b612c6f826123a4565b9050602081019050919050565b5f612c8e612c8984612c4c565b612664565b905082815260208101848484011115612caa57612ca9612602565b5b612cb5848285612396565b509392505050565b5f82601f830112612cd157612cd06125fe565b5b8151612ce1848260208601612c7c565b91505092915050565b5f67ffffffffffffffff821115612d0457612d03612606565b5b602082029050602081019050919050565b5f612d27612d2284612cea565b612664565b90508083825260208201905060208402830185811115612d4a57612d49612973565b5b835b81811015612d9157805167ffffffffffffffff811115612d6f57612d6e6125fe565b5b808601612d7c8982612cbd565b85526020850194505050602081019050612d4c565b5050509392505050565b5f82601f830112612daf57612dae6125fe565b5b8151612dbf848260208601612d15565b91505092915050565b5f67ffffffffffffffff821115612de257612de1612606565b5b602082029050919050565b5f81519050612dfb816127a0565b92915050565b5f612e13612e0e84612dc8565b612664565b90508060208402830185811115612e2d57612e2c612973565b5b835b81811015612e565780612e428882612ded565b845260208401935050602081019050612e2f565b5050509392505050565b5f82601f830112612e7457612e736125fe565b5b6003612e81848285612e01565b91505092915050565b5f6102408284031215612ea057612e9f612b6e565b5b612eab6101a0612664565b90505f612eba84828501612b76565b5f830152506020612ecd84828501612b8a565b6020830152506040612ee184828501612b8a565b6040830152506060612ef584828501612c22565b60608301525060e082015167ffffffffffffffff811115612f1957612f18612b72565b5b612f2584828501612cbd565b60808301525061010082015167ffffffffffffffff811115612f4a57612f49612b72565b5b612f5684828501612d9b565b60a08301525061012082015167ffffffffffffffff811115612f7b57612f7a612b72565b5b612f8784828501612cbd565b60c08301525061014082015167ffffffffffffffff811115612fac57612fab612b72565b5b612fb884828501612cbd565b60e08301525061016082015167ffffffffffffffff811115612fdd57612fdc612b72565b5b612fe984828501612cbd565b6101008301525061018082015167ffffffffffffffff81111561300f5761300e612b72565b5b61301b84828501612cbd565b610120830152506101a082015167ffffffffffffffff81111561304157613040612b72565b5b61304d84828501612cbd565b610140830152506101c061306384828501612b8a565b610160830152506101e061307984828501612e60565b6101808301525092915050565b5f6020828403121561309b5761309a6122c1565b5b5f82015167ffffffffffffffff8111156130b8576130b76122c5565b5b6130c484828501612e8a565b91505092915050565b5f81905092915050565b5f6130e18261237c565b6130eb81856130cd565b93506130fb818560208601612396565b80840191505092915050565b5f61311282856130d7565b915061311e82846130d7565b91508190509392505050565b5f5ffd5b5f5ffd5b5f5f858511156131455761314461312a565b5b838611156131565761315561312e565b5b6001850283019150848603905094509492505050565b5f82905092915050565b5f82821b905092915050565b5f61318d838361316c565b8261319881356125a2565b925060208210156131d8576131d37fffffffffffffffffffffffffffffffffffffffffffffffffffffffffffffffff83602003600802613176565b831692505b505092915050565b5f60ff82169050919050565b5f8160f81b9050919050565b5f613202826131ec565b9050919050565b61321a613215826131e0565b6131f8565b82525050565b5f7fffffffffffffffffffffffffffffffffffffffffffffffffffffffffffffff0082169050919050565b5f819050919050565b61326561326082613220565b61324b565b82525050565b5f819050919050565b6132856132808261240c565b61326b565b82525050565b5f81905092915050565b5f6132a0838561328b565b93506132ad8385846126ae565b82840190509392505050565b5f6132c48288613209565b6001820191506132d48287613254565b601f820191506132e48286613274565b6020820191506132f5828486613295565b91508190509695505050505050565b5f819050919050565b61331e613319826125a2565b613304565b82525050565b5f61332f828661330d565b602082019150613340828486613295565b9150819050949350505050565b5f81519050919050565b5f82825260208201905092915050565b5f6133718261334d565b61337b8185613357565b935061338b818560208601612396565b613394816123a4565b840191505092915050565b5f6040820190508181035f8301526133b78185613367565b905081810360208301526133cb8184613367565b90509392505050565b5f819050815f5260205f209050919050565b5f6020601f8301049050919050565b5f600883026134247fffffffffffffffffffffffffffffffffffffffffffffffffffffffffffffffff82613176565b61342e8683613176565b95508019841693508086168417925050509392505050565b5f819050919050565b5f61346961346461345f8461240c565b613446565b61240c565b9050919050565b5f819050919050565b6134828361344f565b61349661348e82613470565b8484546133f5565b825550505050565b5f5f905090565b6134ad61349e565b6134b8818484613479565b505050565b5b818110156134db576134d05f826134a5565b6001810190506134be565b5050565b601f821115613520576134f1816133d4565b6134fa846133e6565b81016020851015613509578190505b61351d613515856133e6565b8301826134bd565b50505b505050565b5f82821c905092915050565b5f6135405f1984600802613525565b1980831691505092915050565b5f6135588383613531565b9150826002028217905092915050565b6135718261237c565b67ffffffffffffffff81111561358a57613589612606565b5b6135948254612ab5565b61359f8282856134df565b5f60209050601f8311600181146135d0575f84156135be578287015190505b6135c8858261354d565b86555061362f565b601f1984166135de866133d4565b5f5b82811015613605578489015182556001820191506020850194506020810190506135e0565b86831015613622578489015161361e601f891682613531565b8355505b6001600288020188555050505b505050505050565b7f4e487b71000000000000000000000000000000000000000000000000000000005f52601160045260245ffd5b5f61366e8261240c565b91506136798361240c565b925082820190508082111561369157613690613637565b5b92915050565b5f6080820190506136aa5f83018761249a565b6136b7602083018661249a565b6136c4604083018561252a565b81810360608301526136d68184613367565b905095945050505050565b5f815190506136ef816122f4565b92915050565b5f6020828403121561370a576137096122c1565b5b5f613717848285016136e1565b91505092915050565b7f4e487b71000000000000000000000000000000000000000000000000000000005f52601260045260245ffd5b5f6137578261240c565b91506137628361240c565b925082820390508181111561377a57613779613637565b5b92915050565b7f4e487b71000000000000000000000000000000000000000000000000000000005f52603160045260245ffdfea26469706673582212203f0c0d774f79ab2ba175f5cd250de249a4ba29e432f199b726782473483dc17d64736f6c634300081c0033",
  "linkReferences": {},
  "deployedLinkReferences": {},
  "immutableReferences": {
    "8576": [
      {
        "length": 32,
        "start": 2409
      },
      {
        "length": 32,
        "start": 3622
      }
    ],
    "11798": [
      {
        "length": 32,
        "start": 3059
      },
      {
        "length": 32,
        "start": 3138
      }
    ],
    "11801": [
      {
        "length": 32,
        "start": 2031
      },
      {
        "length": 32,
        "start": 4811
      }
    ]
  },
  "inputSourceName": "project/contracts/PassportBoundNFT.sol",
  "buildInfoId": "solc-0_8_28-e77a8f56686c3cd52fa756cd2a0632554a4a0d52"
}