{
  "_format": "hh3-artifact-1",
  "contractName": "UBIDrop",
  "sourceName": "contracts/UBIDrop.sol",
  "abi": [
    {
      "inputs": [
        {
          "internalType": "address",
          "name": "passportBoundNft_",
          "type": "address"
        }
      ],
      "stateMutability": "nonpayable",
      "type": "constructor"
    },
    {
      "inputs": [],
      "name": "AlreadyClaimed",
      "type": "error"
    },
    {
      "inputs": [],
      "name": "DropNotFound",
      "type": "error"
    },
    {
      "inputs": [],
      "name": "InvalidProof",
      "type": "error"
    },
    {
      "inputs": [],
      "name": "NoSupply",
      "type": "error"
    },
    {
      "inputs": [
        {
          "internalType": "address",
          "name": "token",
          "type": "address"
        }
      ],
      "name": "SafeERC20FailedOperation",
      "type": "error"
    },
    {
      "inputs": [],
      "name": "TokenIdNotIncluded",
      "type": "error"
    },
    {
      "anonymous": false,
      "inputs": [
        {
          "indexed": true,
          "internalType": "address",
          "name": "recipient",
          "type": "address"
        },
        {
          "indexed": true,
          "internalType": "uint256",
          "name": "tokenId",
          "type": "uint256"
        },
        {
          "indexed": true,
          "internalType": "uint256",
          "name": "dropId",
          "type": "uint256"
        },
        {
          "indexed": false,
          "internalType": "uint256",
          "name": "amount",
          "type": "uint256"
        }
      ],
      "name": "Claimed",
      "type": "event"
    },
    {
      "anonymous": false,
      "inputs": [
        {
          "indexed": true,
          "internalType": "uint256",
          "name": "dropId",
          "type": "uint256"
        },
        {
          "indexed": false,
          "internalType": "uint256",
          "name": "totalSupply",
          "type": "uint256"
        },
        {
          "indexed": false,
          "internalType": "address",
          "name": "currency",
          "type": "address"
        },
        {
          "indexed": false,
          "internalType": "uint256",
          "name": "amount",
          "type": "uint256"
        }
      ],
      "name": "DropAdded",
      "type": "event"
    },
    {
      "inputs": [
        {
          "internalType": "address",
          "name": "currency",
          "type": "address"
        },
        {
          "internalType": "uint256",
          "name": "amount",
          "type": "uint256"
        }
      ],
      "name": "addDrop",
      "outputs": [],
      "stateMutability": "nonpayable",
      "type": "function"
    },
    {
      "inputs": [
        {
          "internalType": "uint256",
          "name": "tokenId",
          "type": "uint256"
        },
        {
          "internalType": "uint256",
          "name": "dropId",
          "type": "uint256"
        }
      ],
      "name": "claim",
      "outputs": [],
      "stateMutability": "nonpayable",
      "type": "function"
    },
    {
      "inputs": [
        {
          "internalType": "uint256",
          "name": "dropId",
          "type": "uint256"
        }
      ],
      "name": "drops",
      "outputs": [
        {
          "internalType": "uint256",
          "name": "totalSupply",
          "type": "uint256"
        },
        {
          "internalType": "address",
          "name": "currency",
          "type": "address"
        },
        {
          "internalType": "uint256",
          "name": "amount",
          "type": "uint256"
        }
      ],
      "stateMutability": "view",
      "type": "function"
    },
    {
      "inputs": [
        {
          "internalType": "uint256",
          "name": "dropId",
          "type": "uint256"
        },
        {
          "internalType": "uint256",
          "name": "tokenId",
          "type": "uint256"
        }
      ],
      "name": "isClaimed",
      "outputs": [
        {
          "internalType": "bool",
          "name": "claimed",
          "type": "bool"
        }
      ],
      "stateMutability": "view",
      "type": "function"
    },
    {
      "inputs": [],
      "name": "passportBoundNft",
      "outputs": [
        {
          "internalType": "address",
          "name": "",
          "type": "address"
        }
      ],
      "stateMutability": "view",
      "type": "function"
    },
    {
      "inputs": [],
      "name": "totalDrops",
      "outputs": [
        {
          "internalType": "uint256",
          "name": "",
          "type": "uint256"
        }
      ],
      "stateMutability": "view",
      "type": "function"
    }
  ],
  "bytecode": "0x60a060405234801561000f575f5ffd5b50604051610d15380380610d15833981810160405281019061003191906100c9565b8073ffffffffffffffffffffffffffffffffffffffff1660808173ffffffffffffffffffffffffffffffffffffffff1681525050506100f4565b5f5ffd5b5f73ffffffffffffffffffffffffffffffffffffffff82169050919050565b5f6100988261006f565b9050919050565b6100a88161008e565b81146100b2575f5ffd5b50565b5f815190506100c38161009f565b92915050565b5f602082840312156100de576100dd61006b565b5b5f6100eb848285016100b5565b91505092915050565b608051610bfb61011a5f395f81816101540152818161032d01526105300152610bfb5ff3fe608060405234801561000f575f5ffd5b5060043610610060575f3560e01c806312cbe0b0146100645780633ee60bcf146100805780634320138f1461009e5780635eb39968146100bc578063c3490263146100ee578063f364c90c1461010a575b5f5ffd5b61007e600480360381019061007991906108bb565b61013a565b005b610088610325565b6040516100959190610908565b60405180910390f35b6100a661032b565b6040516100b39190610930565b60405180910390f35b6100d660048036038101906100d19190610949565b61034f565b6040516100e593929190610974565b60405180910390f35b610108600480360381019061010391906109a9565b610393565b005b610124600480360381019061011f91906109a9565b610664565b6040516101319190610a01565b60405180910390f35b5f60025f815461014990610a47565b91905081905590505f7f000000000000000000000000000000000000000000000000000000000000000073ffffffffffffffffffffffffffffffffffffffff166318160ddd6040518163ffffffff1660e01b8152600401602060405180830381865afa1580156101bb573d5f5f3e3d5ffd5b505050506040513d601f19601f820116820180604052508101906101df9190610aa2565b90505f810361021a576040517fad44c75c00000000000000000000000000000000000000000000000000000000815260040160405180910390fd5b60405180606001604052808281526020018573ffffffffffffffffffffffffffffffffffffffff168152602001848152505f5f8481526020019081526020015f205f820151815f01556020820151816001015f6101000a81548173ffffffffffffffffffffffffffffffffffffffff021916908373ffffffffffffffffffffffffffffffffffffffff160217905550604082015181600201559050506102e33330858773ffffffffffffffffffffffffffffffffffffffff1661068e909392919063ffffffff16565b817f1e630d2d7b998431d105ae4f6026d575d01c28173a816c36b06cb350d7ca7a7982868660405161031793929190610974565b60405180910390a250505050565b60025481565b7f000000000000000000000000000000000000000000000000000000000000000081565b5f602052805f5260405f205f91509050805f015490806001015f9054906101000a900473ffffffffffffffffffffffffffffffffffffffff16908060020154905083565b5f5f5f8381526020019081526020015f206040518060600160405290815f8201548152602001600182015f9054906101000a900473ffffffffffffffffffffffffffffffffffffffff1673ffffffffffffffffffffffffffffffffffffffff1673ffffffffffffffffffffffffffffffffffffffff16815260200160028201548152505090505f815f015103610455576040517fc9062f8d00000000000000000000000000000000000000000000000000000000815260040160405180910390fd5b805f0151831115610492576040517f4cff459e00000000000000000000000000000000000000000000000000000000815260040160405180910390fd5b60015f8381526020019081526020015f205f8481526020019081526020015f205f9054906101000a900460ff16156104f6576040517f646cf55800000000000000000000000000000000000000000000000000000000815260040160405180910390fd5b6001805f8481526020019081526020015f205f8581526020019081526020015f205f6101000a81548160ff0219169083151502179055505f7f000000000000000000000000000000000000000000000000000000000000000073ffffffffffffffffffffffffffffffffffffffff16636352211e856040518263ffffffff1660e01b81526004016105879190610908565b602060405180830381865afa1580156105a2573d5f5f3e3d5ffd5b505050506040513d601f19601f820116820180604052508101906105c69190610ae1565b90505f825f015183604001516105dc9190610b39565b905061060d8282856020015173ffffffffffffffffffffffffffffffffffffffff166107109092919063ffffffff16565b83858373ffffffffffffffffffffffffffffffffffffffff167f9cdcf2f7714cca3508c7f0110b04a90a80a3a8dd0e35de99689db74d28c5383e846040516106559190610908565b60405180910390a45050505050565b6001602052815f5260405f20602052805f5260405f205f915091509054906101000a900460ff1681565b61070a848573ffffffffffffffffffffffffffffffffffffffff166323b872dd8686866040516024016106c393929190610b69565b604051602081830303815290604052915060e01b6020820180517bffffffffffffffffffffffffffffffffffffffffffffffffffffffff838183161783525050505061078f565b50505050565b61078a838473ffffffffffffffffffffffffffffffffffffffff1663a9059cbb8585604051602401610743929190610b9e565b604051602081830303815290604052915060e01b6020820180517bffffffffffffffffffffffffffffffffffffffffffffffffffffffff838183161783525050505061078f565b505050565b5f5f60205f8451602086015f885af1806107ae576040513d5f823e3d81fd5b3d92505f519150505f82146107c75760018114156107e2565b5f8473ffffffffffffffffffffffffffffffffffffffff163b145b1561082457836040517f5274afe700000000000000000000000000000000000000000000000000000000815260040161081b9190610930565b60405180910390fd5b50505050565b5f5ffd5b5f73ffffffffffffffffffffffffffffffffffffffff82169050919050565b5f6108578261082e565b9050919050565b6108678161084d565b8114610871575f5ffd5b50565b5f813590506108828161085e565b92915050565b5f819050919050565b61089a81610888565b81146108a4575f5ffd5b50565b5f813590506108b581610891565b92915050565b5f5f604083850312156108d1576108d061082a565b5b5f6108de85828601610874565b92505060206108ef858286016108a7565b9150509250929050565b61090281610888565b82525050565b5f60208201905061091b5f8301846108f9565b92915050565b61092a8161084d565b82525050565b5f6020820190506109435f830184610921565b92915050565b5f6020828403121561095e5761095d61082a565b5b5f61096b848285016108a7565b91505092915050565b5f6060820190506109875f8301866108f9565b6109946020830185610921565b6109a160408301846108f9565b949350505050565b5f5f604083850312156109bf576109be61082a565b5b5f6109cc858286016108a7565b92505060206109dd858286016108a7565b9150509250929050565b5f8115159050919050565b6109fb816109e7565b82525050565b5f602082019050610a145f8301846109f2565b92915050565b7f4e487b71000000000000000000000000000000000000000000000000000000005f52601160045260245ffd5b5f610a5182610888565b91507fffffffffffffffffffffffffffffffffffffffffffffffffffffffffffffffff8203610a8357610a82610a1a565b5b600182019050919050565b5f81519050610a9c81610891565b92915050565b5f60208284031215610ab757610ab661082a565b5b5f610ac484828501610a8e565b91505092915050565b5f81519050610adb8161085e565b92915050565b5f60208284031215610af657610af561082a565b5b5f610b0384828501610acd565b91505092915050565b7f4e487b71000000000000000000000000000000000000000000000000000000005f52601260045260245ffd5b5f610b4382610888565b9150610b4e83610888565b925082610b5e57610b5d610b0c565b5b828204905092915050565b5f606082019050610b7c5f830186610921565b610b896020830185610921565b610b9660408301846108f9565b949350505050565b5f604082019050610bb15f830185610921565b610bbe60208301846108f9565b939250505056fea2646970667358221220d9fbecc68754a08882ef48b014c3568a406cb7b34b07edf1aaf6fa5e03e6f47e64736f6c634300081c0033",
  "linkReferences": {},
  "deployedLinkReferences": {},
  "immutableReferences": {
    "12016": [
      {
        "length": 32,
        "start": 340
      },
      {
        "length": 32,
        "start": 813
      },
      {
        "length": 32,
        "start": 1328
      }
    ]
  },
  "inputSourceName": "project/contracts/UBIDrop.sol",
  "buildInfoId": "solc-0_8_28-e77a8f56686c3cd52fa756cd2a0632554a4a0d52"
}