{
  "_format": "hh3-artifact-1",
  "contractName": "UBIDrop",
  "sourceName": "contracts/UBIDrop.sol",
  "abi": [
    {
      "inputs": [
        {
          "internalType": "address",
          "name": "passportBoundNft_",
          "type": "address"
        }
      ],
      "stateMutability": "nonpayable",
      "type": "constructor"
    },
    {
      "inputs": [],
      "name": "AlreadyClaimed",
      "type": "error"
    },
    {
      "inputs": [],
      "name": "DropNotFound",
      "type": "error"
    },
    {
      "inputs": [],
      "name": "InvalidProof",
      "type": "error"
    },
    {
      "inputs": [
        {
          "internalType": "address",
          "name": "token",
          "type": "address"
        }
      ],
      "name": "SafeERC20FailedOperation",
      "type": "error"
    },
    {
      "anonymous": false,
      "inputs": [
        {
          "indexed": true,
          "internalType": "address",
          "name": "recipient",
          "type": "address"
        },
        {
          "indexed": true,
          "internalType": "uint256",
          "name": "tokenId",
          "type": "uint256"
        },
        {
          "indexed": true,
          "internalType": "uint256",
          "name": "dropId",
          "type": "uint256"
        },
        {
          "indexed": false,
          "internalType": "uint256",
          "name": "amount",
          "type": "uint256"
        }
      ],
      "name": "Claimed",
      "type": "event"
    },
    {
      "anonymous": false,
      "inputs": [
        {
          "indexed": true,
          "internalType": "uint256",
          "name": "dropId",
          "type": "uint256"
        },
        {
          "indexed": true,
          "internalType": "bytes32",
          "name": "merkleRoot",
          "type": "bytes32"
        },
        {
          "indexed": false,
          "internalType": "uint256",
          "name": "n",
          "type": "uint256"
        },
        {
          "indexed": false,
          "internalType": "address",
          "name": "currency",
          "type": "address"
        },
        {
          "indexed": false,
          "internalType": "uint256",
          "name": "amount",
          "type": "uint256"
        }
      ],
      "name": "DropAdded",
      "type": "event"
    },
    {
      "inputs": [
        {
          "internalType": "address",
          "name": "currency",
          "type": "address"
        },
        {
          "internalType": "uint256",
          "name": "amount",
          "type": "uint256"
        }
      ],
      "name": "addDrop",
      "outputs": [],
      "stateMutability": "nonpayable",
      "type": "function"
    },
    {
      "inputs": [
        {
          "internalType": "address",
          "name": "recipient",
          "type": "address"
        },
        {
          "internalType": "uint256",
          "name": "tokenId",
          "type": "uint256"
        },
        {
          "internalType": "uint256",
          "name": "dropId",
          "type": "uint256"
        },
        {
          "internalType": "bytes32[]",
          "name": "proof",
          "type": "bytes32[]"
        }
      ],
      "name": "claim",
      "outputs": [],
      "stateMutability": "nonpayable",
      "type": "function"
    },
    {
      "inputs": [
        {
          "internalType": "uint256",
          "name": "dropId",
          "type": "uint256"
        }
      ],
      "name": "drops",
      "outputs": [
        {
          "internalType": "bytes32",
          "name": "merkleRoot",
          "type": "bytes32"
        },
        {
          "internalType": "uint256",
          "name": "n",
          "type": "uint256"
        },
        {
          "internalType": "address",
          "name": "currency",
          "type": "address"
        },
        {
          "internalType": "uint256",
          "name": "amount",
          "type": "uint256"
        }
      ],
      "stateMutability": "view",
      "type": "function"
    },
    {
      "inputs": [
        {
          "internalType": "uint256",
          "name": "dropId",
          "type": "uint256"
        },
        {
          "internalType": "bytes32",
          "name": "leaf",
          "type": "bytes32"
        }
      ],
      "name": "isClaimed",
      "outputs": [
        {
          "internalType": "bool",
          "name": "claimed",
          "type": "bool"
        }
      ],
      "stateMutability": "view",
      "type": "function"
    },
    {
      "inputs": [],
      "name": "passportBoundNft",
      "outputs": [
        {
          "internalType": "address",
          "name": "",
          "type": "address"
        }
      ],
      "stateMutability": "view",
      "type": "function"
    },
    {
      "inputs": [],
      "name": "totalDrops",
      "outputs": [
        {
          "internalType": "uint256",
          "name": "",
          "type": "uint256"
        }
      ],
      "stateMutability": "view",
      "type": "function"
    }
  ],
  "bytecode": "0x60a060405234801561000f575f5ffd5b50604051611072380380611072833981810160405281019061003191906100c9565b8073ffffffffffffffffffffffffffffffffffffffff1660808173ffffffffffffffffffffffffffffffffffffffff1681525050506100f4565b5f5ffd5b5f73ffffffffffffffffffffffffffffffffffffffff82169050919050565b5f6100988261006f565b9050919050565b6100a88161008e565b81146100b2575f5ffd5b50565b5f815190506100c38161009f565b92915050565b5f602082840312156100de576100dd61006b565b5b5f6100eb848285016100b5565b91505092915050565b608051610f5861011a5f395f81816104fd0152818161059701526106260152610f585ff3fe608060405234801561000f575f5ffd5b5060043610610060575f3560e01c806312cbe0b014610064578063172bd6de146100805780633ee60bcf1461009c5780634320138f146100ba5780635eb39968146100d857806391b623b81461010b575b5f5ffd5b61007e60048036038101906100799190610996565b61013b565b005b61009a60048036038101906100959190610b57565b61027d565b005b6100a46104f5565b6040516100b19190610be6565b60405180910390f35b6100c26104fb565b6040516100cf9190610c0e565b60405180910390f35b6100f260048036038101906100ed9190610c27565b61051f565b6040516101029493929190610c61565b60405180910390f35b61012560048036038101906101209190610ca4565b610569565b6040516101329190610cfc565b60405180910390f35b5f5f610145610593565b915091505f60025f815461015890610d42565b919050819055905060405180608001604052808481526020018381526020018673ffffffffffffffffffffffffffffffffffffffff168152602001858152505f5f8381526020019081526020015f205f820151815f0155602082015181600101556040820151816002015f6101000a81548173ffffffffffffffffffffffffffffffffffffffff021916908373ffffffffffffffffffffffffffffffffffffffff160217905550606082015181600301559050506102393330868873ffffffffffffffffffffffffffffffffffffffff166106b7909392919063ffffffff16565b82817f93b7464a8a5a98ba1fbd7d2141da7e58c6a0a71900a6b69a405f82c783b3425b84888860405161026e93929190610d89565b60405180910390a35050505050565b5f5f5f8481526020019081526020015f206040518060800160405290815f820154815260200160018201548152602001600282015f9054906101000a900473ffffffffffffffffffffffffffffffffffffffff1673ffffffffffffffffffffffffffffffffffffffff1673ffffffffffffffffffffffffffffffffffffffff16815260200160038201548152505090505f5f1b815f01510361034b576040517fc9062f8d00000000000000000000000000000000000000000000000000000000815260040160405180910390fd5b5f858560405160200161035f929190610dbe565b60405160208183030381529060405280519060200120905060015f8581526020019081526020015f205f8281526020019081526020015f205f9054906101000a900460ff16156103db576040517f646cf55800000000000000000000000000000000000000000000000000000000815260040160405180910390fd5b6001805f8681526020019081526020015f205f8381526020019081526020015f205f6101000a81548160ff02191690831515021790555061042083835f015183610739565b610456576040517f09bde33900000000000000000000000000000000000000000000000000000000815260040160405180910390fd5b5f8260200151836060015161046b9190610e12565b905061049c8782856040015173ffffffffffffffffffffffffffffffffffffffff1661074f9092919063ffffffff16565b84868873ffffffffffffffffffffffffffffffffffffffff167f9cdcf2f7714cca3508c7f0110b04a90a80a3a8dd0e35de99689db74d28c5383e846040516104e49190610be6565b60405180910390a450505050505050565b60025481565b7f000000000000000000000000000000000000000000000000000000000000000081565b5f602052805f5260405f205f91509050805f015490806001015490806002015f9054906101000a900473ffffffffffffffffffffffffffffffffffffffff16908060030154905084565b6001602052815f5260405f20602052805f5260405f205f915091509054906101000a900460ff1681565b5f5f7f000000000000000000000000000000000000000000000000000000000000000073ffffffffffffffffffffffffffffffffffffffff16632eb4a7ab6040518163ffffffff1660e01b8152600401602060405180830381865afa1580156105fe573d5f5f3e3d5ffd5b505050506040513d601f19601f820116820180604052508101906106229190610e56565b91507f000000000000000000000000000000000000000000000000000000000000000073ffffffffffffffffffffffffffffffffffffffff166318160ddd6040518163ffffffff1660e01b8152600401602060405180830381865afa15801561068d573d5f5f3e3d5ffd5b505050506040513d601f19601f820116820180604052508101906106b19190610e95565b90509091565b610733848573ffffffffffffffffffffffffffffffffffffffff166323b872dd8686866040516024016106ec93929190610ec0565b604051602081830303815290604052915060e01b6020820180517bffffffffffffffffffffffffffffffffffffffffffffffffffffffff83818316178352505050506107ce565b50505050565b5f826107458584610869565b1490509392505050565b6107c9838473ffffffffffffffffffffffffffffffffffffffff1663a9059cbb8585604051602401610782929190610dbe565b604051602081830303815290604052915060e01b6020820180517bffffffffffffffffffffffffffffffffffffffffffffffffffffffff83818316178352505050506107ce565b505050565b5f5f60205f8451602086015f885af1806107ed576040513d5f823e3d81fd5b3d92505f519150505f8214610806576001811415610821565b5f8473ffffffffffffffffffffffffffffffffffffffff163b145b1561086357836040517f5274afe700000000000000000000000000000000000000000000000000000000815260040161085a9190610c0e565b60405180910390fd5b50505050565b5f5f8290505f5f90505b84518110156108af576108a08286838151811061089357610892610ef5565b5b60200260200101516108ba565b91508080600101915050610873565b508091505092915050565b5f8183106108d1576108cc82846108e4565b6108dc565b6108db83836108e4565b5b905092915050565b5f825f528160205260405f20905092915050565b5f604051905090565b5f5ffd5b5f5ffd5b5f73ffffffffffffffffffffffffffffffffffffffff82169050919050565b5f61093282610909565b9050919050565b61094281610928565b811461094c575f5ffd5b50565b5f8135905061095d81610939565b92915050565b5f819050919050565b61097581610963565b811461097f575f5ffd5b50565b5f813590506109908161096c565b92915050565b5f5f604083850312156109ac576109ab610901565b5b5f6109b98582860161094f565b92505060206109ca85828601610982565b9150509250929050565b5f5ffd5b5f601f19601f8301169050919050565b7f4e487b71000000000000000000000000000000000000000000000000000000005f52604160045260245ffd5b610a1e826109d8565b810181811067ffffffffffffffff82111715610a3d57610a3c6109e8565b5b80604052505050565b5f610a4f6108f8565b9050610a5b8282610a15565b919050565b5f67ffffffffffffffff821115610a7a57610a796109e8565b5b602082029050602081019050919050565b5f5ffd5b5f819050919050565b610aa181610a8f565b8114610aab575f5ffd5b50565b5f81359050610abc81610a98565b92915050565b5f610ad4610acf84610a60565b610a46565b90508083825260208201905060208402830185811115610af757610af6610a8b565b5b835b81811015610b205780610b0c8882610aae565b845260208401935050602081019050610af9565b5050509392505050565b5f82601f830112610b3e57610b3d6109d4565b5b8135610b4e848260208601610ac2565b91505092915050565b5f5f5f5f60808587031215610b6f57610b6e610901565b5b5f610b7c8782880161094f565b9450506020610b8d87828801610982565b9350506040610b9e87828801610982565b925050606085013567ffffffffffffffff811115610bbf57610bbe610905565b5b610bcb87828801610b2a565b91505092959194509250565b610be081610963565b82525050565b5f602082019050610bf95f830184610bd7565b92915050565b610c0881610928565b82525050565b5f602082019050610c215f830184610bff565b92915050565b5f60208284031215610c3c57610c3b610901565b5b5f610c4984828501610982565b91505092915050565b610c5b81610a8f565b82525050565b5f608082019050610c745f830187610c52565b610c816020830186610bd7565b610c8e6040830185610bff565b610c9b6060830184610bd7565b95945050505050565b5f5f60408385031215610cba57610cb9610901565b5b5f610cc785828601610982565b9250506020610cd885828601610aae565b9150509250929050565b5f8115159050919050565b610cf681610ce2565b82525050565b5f602082019050610d0f5f830184610ced565b92915050565b7f4e487b71000000000000000000000000000000000000000000000000000000005f52601160045260245ffd5b5f610d4c82610963565b91507fffffffffffffffffffffffffffffffffffffffffffffffffffffffffffffffff8203610d7e57610d7d610d15565b5b600182019050919050565b5f606082019050610d9c5f830186610bd7565b610da96020830185610bff565b610db66040830184610bd7565b949350505050565b5f604082019050610dd15f830185610bff565b610dde6020830184610bd7565b9392505050565b7f4e487b71000000000000000000000000000000000000000000000000000000005f52601260045260245ffd5b5f610e1c82610963565b9150610e2783610963565b925082610e3757610e36610de5565b5b828204905092915050565b5f81519050610e5081610a98565b92915050565b5f60208284031215610e6b57610e6a610901565b5b5f610e7884828501610e42565b91505092915050565b5f81519050610e8f8161096c565b92915050565b5f60208284031215610eaa57610ea9610901565b5b5f610eb784828501610e81565b91505092915050565b5f606082019050610ed35f830186610bff565b610ee06020830185610bff565b610eed6040830184610bd7565b949350505050565b7f4e487b71000000000000000000000000000000000000000000000000000000005f52603260045260245ffdfea2646970667358221220ef30c5a8c81431b06579eda03657d3e34dc2590d7d4d4e5b4a1cc2bc27e2a81064736f6c634300081c0033",
  "linkReferences": {},
  "deployedLinkReferences": {},
  "immutableReferences": {
    "13835": [
      {
        "length": 32,
        "start": 1277
      },
      {
        "length": 32,
        "start": 1431
      },
      {
        "length": 32,
        "start": 1574
      }
    ]
  },
  "inputSourceName": "project/contracts/UBIDrop.sol",
  "buildInfoId": "solc-0_8_28-d43a1d5596944405450472ce38499f5bf0148fd4"
}